{
  "contractName": "ProvenanceDAppChain",
  "abi": [
    {
      "constant": true,
      "inputs": [
        {
          "name": "_interfaceId",
          "type": "bytes4"
        }
      ],
      "name": "supportsInterface",
      "outputs": [
        {
          "name": "",
          "type": "bool"
        }
      ],
      "payable": false,
      "stateMutability": "view",
      "type": "function"
    },
    {
      "constant": true,
      "inputs": [],
      "name": "name",
      "outputs": [
        {
          "name": "",
          "type": "string"
        }
      ],
      "payable": false,
      "stateMutability": "view",
      "type": "function"
    },
    {
      "constant": true,
      "inputs": [
        {
          "name": "_tokenId",
          "type": "uint256"
        }
      ],
      "name": "getApproved",
      "outputs": [
        {
          "name": "",
          "type": "address"
        }
      ],
      "payable": false,
      "stateMutability": "view",
      "type": "function"
    },
    {
      "constant": false,
      "inputs": [
        {
          "name": "_to",
          "type": "address"
        },
        {
          "name": "_tokenId",
          "type": "uint256"
        }
      ],
      "name": "approve",
      "outputs": [],
      "payable": false,
      "stateMutability": "nonpayable",
      "type": "function"
    },
    {
      "constant": true,
      "inputs": [],
      "name": "gateway",
      "outputs": [
        {
          "name": "",
          "type": "address"
        }
      ],
      "payable": false,
      "stateMutability": "view",
      "type": "function"
    },
    {
      "constant": true,
      "inputs": [],
      "name": "totalSupply",
      "outputs": [
        {
          "name": "",
          "type": "uint256"
        }
      ],
      "payable": false,
      "stateMutability": "view",
      "type": "function"
    },
    {
      "constant": true,
      "inputs": [],
      "name": "InterfaceId_ERC165",
      "outputs": [
        {
          "name": "",
          "type": "bytes4"
        }
      ],
      "payable": false,
      "stateMutability": "view",
      "type": "function"
    },
    {
      "constant": false,
      "inputs": [
        {
          "name": "_from",
          "type": "address"
        },
        {
          "name": "_to",
          "type": "address"
        },
        {
          "name": "_tokenId",
          "type": "uint256"
        }
      ],
      "name": "transferFrom",
      "outputs": [],
      "payable": false,
      "stateMutability": "nonpayable",
      "type": "function"
    },
    {
      "constant": true,
      "inputs": [
        {
          "name": "_owner",
          "type": "address"
        },
        {
          "name": "_index",
          "type": "uint256"
        }
      ],
      "name": "tokenOfOwnerByIndex",
      "outputs": [
        {
          "name": "",
          "type": "uint256"
        }
      ],
      "payable": false,
      "stateMutability": "view",
      "type": "function"
    },
    {
      "constant": false,
      "inputs": [
        {
          "name": "_from",
          "type": "address"
        },
        {
          "name": "_to",
          "type": "address"
        },
        {
          "name": "_tokenId",
          "type": "uint256"
        }
      ],
      "name": "safeTransferFrom",
      "outputs": [],
      "payable": false,
      "stateMutability": "nonpayable",
      "type": "function"
    },
    {
      "constant": true,
      "inputs": [
        {
          "name": "_provId",
          "type": "uint256"
        }
      ],
      "name": "isProvenance",
      "outputs": [
        {
          "name": "isIndeed",
          "type": "bool"
        }
      ],
      "payable": false,
      "stateMutability": "view",
      "type": "function"
    },
    {
      "constant": true,
      "inputs": [
        {
          "name": "_tokenId",
          "type": "uint256"
        }
      ],
      "name": "exists",
      "outputs": [
        {
          "name": "",
          "type": "bool"
        }
      ],
      "payable": false,
      "stateMutability": "view",
      "type": "function"
    },
    {
      "constant": true,
      "inputs": [
        {
          "name": "_index",
          "type": "uint256"
        }
      ],
      "name": "tokenByIndex",
      "outputs": [
        {
          "name": "",
          "type": "uint256"
        }
      ],
      "payable": false,
      "stateMutability": "view",
      "type": "function"
    },
    {
      "constant": true,
      "inputs": [
        {
          "name": "_provId",
          "type": "uint256"
        }
      ],
      "name": "getProvenance",
      "outputs": [
        {
          "name": "tokenId",
          "type": "uint256"
        },
        {
          "name": "inputProvenanceIds",
          "type": "uint256[]"
        },
        {
          "name": "context",
          "type": "string"
        },
        {
          "name": "index",
          "type": "uint256"
        }
      ],
      "payable": false,
      "stateMutability": "view",
      "type": "function"
    },
    {
      "constant": true,
      "inputs": [
        {
          "name": "_tokenId",
          "type": "uint256"
        }
      ],
      "name": "ownerOf",
      "outputs": [
        {
          "name": "",
          "type": "address"
        }
      ],
      "payable": false,
      "stateMutability": "view",
      "type": "function"
    },
    {
      "constant": true,
      "inputs": [
        {
          "name": "_tokenId",
          "type": "uint256"
        }
      ],
      "name": "numberOfProvenanceRecordsFor",
      "outputs": [
        {
          "name": "",
          "type": "uint256"
        }
      ],
      "payable": false,
      "stateMutability": "view",
      "type": "function"
    },
    {
      "constant": true,
      "inputs": [
        {
          "name": "_owner",
          "type": "address"
        }
      ],
      "name": "balanceOf",
      "outputs": [
        {
          "name": "",
          "type": "uint256"
        }
      ],
      "payable": false,
      "stateMutability": "view",
      "type": "function"
    },
    {
      "constant": true,
      "inputs": [
        {
          "name": "_tokenId",
          "type": "uint256"
        },
        {
          "name": "_index",
          "type": "uint256"
        }
      ],
      "name": "provenanceOfTokenByIndex",
      "outputs": [
        {
          "name": "provId",
          "type": "uint256"
        }
      ],
      "payable": false,
      "stateMutability": "view",
      "type": "function"
    },
    {
      "constant": true,
      "inputs": [
        {
          "name": "_index",
          "type": "uint256"
        }
      ],
      "name": "getProvenanceIdAtIndex",
      "outputs": [
        {
          "name": "provId",
          "type": "uint256"
        }
      ],
      "payable": false,
      "stateMutability": "view",
      "type": "function"
    },
    {
      "constant": true,
      "inputs": [],
      "name": "symbol",
      "outputs": [
        {
          "name": "",
          "type": "string"
        }
      ],
      "payable": false,
      "stateMutability": "view",
      "type": "function"
    },
    {
      "constant": false,
      "inputs": [
        {
          "name": "_to",
          "type": "address"
        },
        {
          "name": "_approved",
          "type": "bool"
        }
      ],
      "name": "setApprovalForAll",
      "outputs": [],
      "payable": false,
      "stateMutability": "nonpayable",
      "type": "function"
    },
    {
      "constant": true,
      "inputs": [],
      "name": "getProvenanceCount",
      "outputs": [
        {
          "name": "count",
          "type": "uint256"
        }
      ],
      "payable": false,
      "stateMutability": "view",
      "type": "function"
    },
    {
      "constant": false,
      "inputs": [
        {
          "name": "_from",
          "type": "address"
        },
        {
          "name": "_to",
          "type": "address"
        },
        {
          "name": "_tokenId",
          "type": "uint256"
        },
        {
          "name": "_data",
          "type": "bytes"
        }
      ],
      "name": "safeTransferFrom",
      "outputs": [],
      "payable": false,
      "stateMutability": "nonpayable",
      "type": "function"
    },
    {
      "constant": true,
      "inputs": [
        {
          "name": "_tokenId",
          "type": "uint256"
        }
      ],
      "name": "tokenURI",
      "outputs": [
        {
          "name": "",
          "type": "string"
        }
      ],
      "payable": false,
      "stateMutability": "view",
      "type": "function"
    },
    {
      "constant": true,
      "inputs": [
        {
          "name": "_owner",
          "type": "address"
        },
        {
          "name": "_operator",
          "type": "address"
        }
      ],
      "name": "isApprovedForAll",
      "outputs": [
        {
          "name": "",
          "type": "bool"
        }
      ],
      "payable": false,
      "stateMutability": "view",
      "type": "function"
    },
    {
      "inputs": [
        {
          "name": "_gateway",
          "type": "address"
        }
      ],
      "payable": false,
      "stateMutability": "nonpayable",
      "type": "constructor"
    },
    {
      "anonymous": false,
      "inputs": [
        {
          "indexed": true,
          "name": "_from",
          "type": "address"
        },
        {
          "indexed": true,
          "name": "_to",
          "type": "address"
        },
        {
          "indexed": true,
          "name": "_tokenId",
          "type": "uint256"
        }
      ],
      "name": "Transfer",
      "type": "event"
    },
    {
      "anonymous": false,
      "inputs": [
        {
          "indexed": true,
          "name": "_owner",
          "type": "address"
        },
        {
          "indexed": true,
          "name": "_approved",
          "type": "address"
        },
        {
          "indexed": true,
          "name": "_tokenId",
          "type": "uint256"
        }
      ],
      "name": "Approval",
      "type": "event"
    },
    {
      "anonymous": false,
      "inputs": [
        {
          "indexed": true,
          "name": "_owner",
          "type": "address"
        },
        {
          "indexed": true,
          "name": "_operator",
          "type": "address"
        },
        {
          "indexed": false,
          "name": "_approved",
          "type": "bool"
        }
      ],
      "name": "ApprovalForAll",
      "type": "event"
    },
    {
      "anonymous": false,
      "inputs": [
        {
          "indexed": false,
          "name": "provId",
          "type": "uint256"
        },
        {
          "indexed": false,
          "name": "index",
          "type": "uint256"
        },
        {
          "indexed": true,
          "name": "tokenId",
          "type": "uint256"
        },
        {
          "indexed": false,
          "name": "inputProvenanceIds",
          "type": "uint256[]"
        },
        {
          "indexed": false,
          "name": "context",
          "type": "string"
        }
      ],
      "name": "CreateProvenanceEvent",
      "type": "event"
    },
    {
      "anonymous": false,
      "inputs": [
        {
          "indexed": true,
          "name": "provId",
          "type": "uint256"
        },
        {
          "indexed": false,
          "name": "index",
          "type": "uint256"
        },
        {
          "indexed": true,
          "name": "tokenId",
          "type": "uint256"
        },
        {
          "indexed": false,
          "name": "inputProvenanceIds",
          "type": "uint256[]"
        },
        {
          "indexed": false,
          "name": "context",
          "type": "string"
        }
      ],
      "name": "UpdateProvenanceEvent",
      "type": "event"
    },
    {
      "anonymous": false,
      "inputs": [
        {
          "indexed": true,
          "name": "provId",
          "type": "uint256"
        },
        {
          "indexed": false,
          "name": "index",
          "type": "uint256"
        }
      ],
      "name": "DeleteProvenanceEvent",
      "type": "event"
    },
    {
      "constant": false,
      "inputs": [
        {
          "name": "_uid",
          "type": "uint256"
        }
      ],
      "name": "mintToGateway",
      "outputs": [],
      "payable": false,
      "stateMutability": "nonpayable",
      "type": "function"
    },
    {
      "constant": false,
      "inputs": [
        {
          "name": "_gateway",
          "type": "address"
        },
        {
          "name": "_tokenId",
          "type": "uint256"
        }
      ],
      "name": "depositToGateway",
      "outputs": [],
      "payable": false,
      "stateMutability": "nonpayable",
      "type": "function"
    },
    {
      "constant": false,
      "inputs": [
        {
          "name": "_tokenId",
          "type": "uint256"
        },
        {
          "name": "_context",
          "type": "string"
        },
        {
          "name": "_inputProvenanceIds",
          "type": "uint256[]"
        }
      ],
      "name": "createProvenance",
      "outputs": [
        {
          "name": "index",
          "type": "uint256"
        }
      ],
      "payable": false,
      "stateMutability": "nonpayable",
      "type": "function"
    },
    {
      "constant": false,
      "inputs": [
        {
          "name": "_provId",
          "type": "uint256"
        },
        {
          "name": "_tokenId",
          "type": "uint256"
        },
        {
          "name": "_context",
          "type": "string"
        },
        {
          "name": "_inputProvenanceIds",
          "type": "uint256[]"
        }
      ],
      "name": "updateProvenance",
      "outputs": [
        {
          "name": "success",
          "type": "bool"
        }
      ],
      "payable": false,
      "stateMutability": "nonpayable",
      "type": "function"
    },
    {
      "constant": false,
      "inputs": [
        {
          "name": "_provId",
          "type": "uint256"
        }
      ],
      "name": "deleteProvenance",
      "outputs": [
        {
          "name": "success",
          "type": "bool"
        }
      ],
      "payable": false,
      "stateMutability": "nonpayable",
      "type": "function"
    },
    {
      "constant": false,
      "inputs": [],
      "name": "requestToken",
      "outputs": [
        {
          "name": "tokenId",
          "type": "uint256"
        }
      ],
      "payable": false,
      "stateMutability": "nonpayable",
      "type": "function"
    },
    {
      "constant": false,
      "inputs": [
        {
          "name": "_operator",
          "type": "address"
        },
        {
          "name": "_from",
          "type": "address"
        },
        {
          "name": "_tokenId",
          "type": "uint256"
        },
        {
          "name": "_data",
          "type": "bytes"
        }
      ],
      "name": "onERC721Received",
      "outputs": [
        {
          "name": "",
          "type": "bytes4"
        }
      ],
      "payable": false,
      "stateMutability": "nonpayable",
      "type": "function"
    }
  ],
  "bytecode": "0x60806040523480156200001157600080fd5b5060405160208062003727833981018060405281019080805190602001909291905050506040805190810160405280600f81526020017f50726f76656e616e6365546f6b656e00000000000000000000000000000000008152506040805190810160405280600481526020017f50524f56000000000000000000000000000000000000000000000000000000008152508181620000e06301ffc9a77c01000000000000000000000000000000000000000000000000000000000262000252640100000000026401000000009004565b6200011d6380ac58cd7c01000000000000000000000000000000000000000000000000000000000262000252640100000000026401000000009004565b6200015a634f558e797c01000000000000000000000000000000000000000000000000000000000262000252640100000000026401000000009004565b81600590805190602001906200017292919062000310565b5080600690805190602001906200018b92919062000310565b50620001c963780e9d637c01000000000000000000000000000000000000000000000000000000000262000252640100000000026401000000009004565b62000206635b5e139f7c01000000000000000000000000000000000000000000000000000000000262000252640100000000026401000000009004565b5050505080601260006101000a81548173ffffffffffffffffffffffffffffffffffffffff021916908373ffffffffffffffffffffffffffffffffffffffff16021790555050620003bf565b63ffffffff7c010000000000000000000000000000000000000000000000000000000002817bffffffffffffffffffffffffffffffffffffffffffffffffffffffff191614151515620002a457600080fd5b6001600080837bffffffffffffffffffffffffffffffffffffffffffffffffffffffff19167bffffffffffffffffffffffffffffffffffffffffffffffffffffffff1916815260200190815260200160002060006101000a81548160ff02191690831515021790555050565b828054600181600116156101000203166002900490600052602060002090601f016020900481019282601f106200035357805160ff191683800117855562000384565b8280016001018555821562000384579182015b828111156200038357825182559160200191906001019062000366565b5b50905062000393919062000397565b5090565b620003bc91905b80821115620003b85760008160009055506001016200039e565b5090565b90565b61335880620003cf6000396000f300608060405260043610610196576000357c0100000000000000000000000000000000000000000000000000000000900463ffffffff16806301ffc9a71461019b57806306fdde03146101ff578063081812fc1461028f578063095ea7b3146102fc578063116191b614610349578063150b7a02146103a057806318160ddd146104a557806319fa8f50146104d057806323b872dd146105395780632f745c59146105a657806342842e0e1461060757806343cd6bf4146106745780634d7ec628146106b95780634f558e79146106e45780634f6ccce714610729578063544297f51461076a57806360f1233d146107975780636352211e146108935780636a8ce0b01461090057806370a08231146109415780638eb4eece14610998578063955f9be2146109e357806395cc396314610aad57806395d89b4114610aee5780639f2b755614610b7e578063a22cb46514610c56578063a3ed8a2114610ca5578063b88d4fde14610cd0578063c87b56dd14610d83578063cd8b437214610e29578063e985e9c514610e6e578063eb6bf63314610ee9575b600080fd5b3480156101a757600080fd5b506101e560048036038101908080357bffffffffffffffffffffffffffffffffffffffffffffffffffffffff19169060200190929190505050610f36565b604051808215151515815260200191505060405180910390f35b34801561020b57600080fd5b50610214610f9d565b6040518080602001828103825283818151815260200191508051906020019080838360005b83811015610254578082015181840152602081019050610239565b50505050905090810190601f1680156102815780820380516001836020036101000a031916815260200191505b509250505060405180910390f35b34801561029b57600080fd5b506102ba6004803603810190808035906020019092919050505061103f565b604051808273ffffffffffffffffffffffffffffffffffffffff1673ffffffffffffffffffffffffffffffffffffffff16815260200191505060405180910390f35b34801561030857600080fd5b50610347600480360381019080803573ffffffffffffffffffffffffffffffffffffffff1690602001909291908035906020019092919050505061107c565b005b34801561035557600080fd5b5061035e6111c1565b604051808273ffffffffffffffffffffffffffffffffffffffff1673ffffffffffffffffffffffffffffffffffffffff16815260200191505060405180910390f35b3480156103ac57600080fd5b50610451600480360381019080803573ffffffffffffffffffffffffffffffffffffffff169060200190929190803573ffffffffffffffffffffffffffffffffffffffff16906020019092919080359060200190929190803590602001908201803590602001908080601f01602080910402602001604051908101604052809392919081815260200183838082843782019150505050505091929192905050506111e7565b60405180827bffffffffffffffffffffffffffffffffffffffffffffffffffffffff19167bffffffffffffffffffffffffffffffffffffffffffffffffffffffff1916815260200191505060405180910390f35b3480156104b157600080fd5b506104ba611217565b6040518082815260200191505060405180910390f35b3480156104dc57600080fd5b506104e5611224565b60405180827bffffffffffffffffffffffffffffffffffffffffffffffffffffffff19167bffffffffffffffffffffffffffffffffffffffffffffffffffffffff1916815260200191505060405180910390f35b34801561054557600080fd5b506105a4600480360381019080803573ffffffffffffffffffffffffffffffffffffffff169060200190929190803573ffffffffffffffffffffffffffffffffffffffff1690602001909291908035906020019092919050505061124b565b005b3480156105b257600080fd5b506105f1600480360381019080803573ffffffffffffffffffffffffffffffffffffffff16906020019092919080359060200190929190505050611356565b6040518082815260200191505060405180910390f35b34801561061357600080fd5b50610672600480360381019080803573ffffffffffffffffffffffffffffffffffffffff169060200190929190803573ffffffffffffffffffffffffffffffffffffffff169060200190929190803590602001909291905050506113cd565b005b34801561068057600080fd5b5061069f600480360381019080803590602001909291905050506113ee565b604051808215151515815260200191505060405180910390f35b3480156106c557600080fd5b506106ce611457565b6040518082815260200191505060405180910390f35b3480156106f057600080fd5b5061070f60048036038101908080359060200190929190505050611472565b604051808215151515815260200191505060405180910390f35b34801561073557600080fd5b50610754600480360381019080803590602001909291905050506114e4565b6040518082815260200191505060405180910390f35b34801561077657600080fd5b506107956004803603810190808035906020019092919050505061151c565b005b3480156107a357600080fd5b506107c2600480360381019080803590602001909291905050506115a7565b604051808581526020018060200180602001848152602001838103835286818151815260200191508051906020019060200280838360005b838110156108155780820151818401526020810190506107fa565b50505050905001838103825285818151815260200191508051906020019080838360005b83811015610854578082015181840152602081019050610839565b50505050905090810190601f1680156108815780820380516001836020036101000a031916815260200191505b50965050505050505060405180910390f35b34801561089f57600080fd5b506108be60048036038101908080359060200190929190505050611782565b604051808273ffffffffffffffffffffffffffffffffffffffff1673ffffffffffffffffffffffffffffffffffffffff16815260200191505060405180910390f35b34801561090c57600080fd5b5061092b60048036038101908080359060200190929190505050611800565b6040518082815260200191505060405180910390f35b34801561094d57600080fd5b50610982600480360381019080803573ffffffffffffffffffffffffffffffffffffffff169060200190929190505050611820565b6040518082815260200191505060405180910390f35b3480156109a457600080fd5b506109cd60048036038101908080359060200190929190803590602001909291905050506118a4565b6040518082815260200191505060405180910390f35b3480156109ef57600080fd5b50610a9760048036038101908080359060200190929190803590602001908201803590602001908080601f0160208091040260200160405190810160405280939291908181526020018383808284378201915050505050509192919290803590602001908201803590602001908080602002602001604051908101604052809392919081815260200183836020028082843782019150505050505091929192905050506118ef565b6040518082815260200191505060405180910390f35b348015610ab957600080fd5b50610ad860048036038101908080359060200190929190505050611905565b6040518082815260200191505060405180910390f35b348015610afa57600080fd5b50610b036119a4565b6040518080602001828103825283818151815260200191508051906020019080838360005b83811015610b43578082015181840152602081019050610b28565b50505050905090810190601f168015610b705780820380516001836020036101000a031916815260200191505b509250505060405180910390f35b348015610b8a57600080fd5b50610c3c6004803603810190808035906020019092919080359060200190929190803590602001908201803590602001908080601f016020809104026020016040519081016040528093929190818152602001838380828437820191505050505050919291929080359060200190820180359060200190808060200260200160405190810160405280939291908181526020018383602002808284378201915050505050509192919290505050611a46565b604051808215151515815260200191505060405180910390f35b348015610c6257600080fd5b50610ca3600480360381019080803573ffffffffffffffffffffffffffffffffffffffff169060200190929190803515159060200190929190505050611a5e565b005b348015610cb157600080fd5b50610cba611b9a565b6040518082815260200191505060405180910390f35b348015610cdc57600080fd5b50610d81600480360381019080803573ffffffffffffffffffffffffffffffffffffffff169060200190929190803573ffffffffffffffffffffffffffffffffffffffff16906020019092919080359060200190929190803590602001908201803590602001908080601f0160208091040260200160405190810160405280939291908181526020018383808284378201915050505050509192919290505050611ba7565b005b348015610d8f57600080fd5b50610dae60048036038101908080359060200190929190505050611bcf565b6040518080602001828103825283818151815260200191508051906020019080838360005b83811015610dee578082015181840152602081019050610dd3565b50505050905090810190601f168015610e1b5780820380516001836020036101000a031916815260200191505b509250505060405180910390f35b348015610e3557600080fd5b50610e5460048036038101908080359060200190929190505050611c98565b604051808215151515815260200191505060405180910390f35b348015610e7a57600080fd5b50610ecf600480360381019080803573ffffffffffffffffffffffffffffffffffffffff169060200190929190803573ffffffffffffffffffffffffffffffffffffffff169060200190929190505050611caa565b604051808215151515815260200191505060405180910390f35b348015610ef557600080fd5b50610f34600480360381019080803573ffffffffffffffffffffffffffffffffffffffff16906020019092919080359060200190929190505050611d3e565b005b6000806000837bffffffffffffffffffffffffffffffffffffffffffffffffffffffff19167bffffffffffffffffffffffffffffffffffffffffffffffffffffffff1916815260200190815260200160002060009054906101000a900460ff169050919050565b606060058054600181600116156101000203166002900480601f0160208091040260200160405190810160405280929190818152602001828054600181600116156101000203166002900480156110355780601f1061100a57610100808354040283529160200191611035565b820191906000526020600020905b81548152906001019060200180831161101857829003601f168201915b5050505050905090565b60006002600083815260200190815260200160002060009054906101000a900473ffffffffffffffffffffffffffffffffffffffff169050919050565b600061108782611782565b90508073ffffffffffffffffffffffffffffffffffffffff168373ffffffffffffffffffffffffffffffffffffffff16141515156110c457600080fd5b8073ffffffffffffffffffffffffffffffffffffffff163373ffffffffffffffffffffffffffffffffffffffff16148061110457506111038133611caa565b5b151561110f57600080fd5b826002600084815260200190815260200160002060006101000a81548173ffffffffffffffffffffffffffffffffffffffff021916908373ffffffffffffffffffffffffffffffffffffffff160217905550818373ffffffffffffffffffffffffffffffffffffffff168273ffffffffffffffffffffffffffffffffffffffff167f8c5be1e5ebec7d5bd14f71427d1e84f3dd0314c0f7b2291e5b200ac8c7c3b92560405160405180910390a4505050565b601260009054906101000a900473ffffffffffffffffffffffffffffffffffffffff1681565b600063150b7a027c0100000000000000000000000000000000000000000000000000000000029050949350505050565b6000600980549050905090565b6301ffc9a77c01000000000000000000000000000000000000000000000000000000000281565b6112553382611d4f565b151561126057600080fd5b600073ffffffffffffffffffffffffffffffffffffffff168373ffffffffffffffffffffffffffffffffffffffff161415151561129c57600080fd5b600073ffffffffffffffffffffffffffffffffffffffff168273ffffffffffffffffffffffffffffffffffffffff16141515156112d857600080fd5b6112e28382611de4565b6112ec8382611ee7565b6112f682826120a3565b808273ffffffffffffffffffffffffffffffffffffffff168473ffffffffffffffffffffffffffffffffffffffff167fddf252ad1be2c89b69c2b068fc378daa952ba7f163c4a11628f55a4df523b3ef60405160405180910390a4505050565b600061136183611820565b8210151561136e57600080fd5b600760008473ffffffffffffffffffffffffffffffffffffffff1673ffffffffffffffffffffffffffffffffffffffff168152602001908152602001600020828154811015156113ba57fe5b9060005260206000200154905092915050565b6113e98383836020604051908101604052806000815250611ba7565b505050565b6000600d80549050600c60008481526020019081526020016000206001015410151561141d5760009050611452565b81600d600c60008581526020019081526020016000206001015481548110151561144357fe5b90600052602060002001541490505b919050565b600080151561146557600080fd5b61146d61217a565b905090565b6000806001600084815260200190815260200160002060009054906101000a900473ffffffffffffffffffffffffffffffffffffffff169050600073ffffffffffffffffffffffffffffffffffffffff168173ffffffffffffffffffffffffffffffffffffffff161415915050919050565b60006114ee611217565b821015156114fb57600080fd5b60098281548110151561150a57fe5b90600052602060002001549050919050565b601260009054906101000a900473ffffffffffffffffffffffffffffffffffffffff1673ffffffffffffffffffffffffffffffffffffffff163373ffffffffffffffffffffffffffffffffffffffff1614151561157857600080fd5b6115a4601260009054906101000a900473ffffffffffffffffffffffffffffffffffffffff1682612198565b50565b600060608060006115b7856113ee565b151561162b576040517f08c379a00000000000000000000000000000000000000000000000000000000081526004018080602001828103825260108152602001807f4e6f6e2d6578697374656e74206b65790000000000000000000000000000000081525060200191505060405180910390fd5b600c600086815260200190815260200160002060000154600c6000878152602001908152602001600020600201600c6000888152602001908152602001600020600301600c600089815260200190815260200160002060010154828054806020026020016040519081016040528092919081815260200182805480156116d057602002820191906000526020600020905b8154815260200190600101908083116116bc575b50505050509250818054600181600116156101000203166002900480601f01602080910402602001604051908101604052809291908181526020018280546001816001161561010002031660029004801561176c5780601f106117415761010080835404028352916020019161176c565b820191906000526020600020905b81548152906001019060200180831161174f57829003601f168201915b5050505050915093509350935093509193509193565b6000806001600084815260200190815260200160002060009054906101000a900473ffffffffffffffffffffffffffffffffffffffff169050600073ffffffffffffffffffffffffffffffffffffffff168173ffffffffffffffffffffffffffffffffffffffff16141515156117f757600080fd5b80915050919050565b600060106000838152602001908152602001600020805490509050919050565b60008073ffffffffffffffffffffffffffffffffffffffff168273ffffffffffffffffffffffffffffffffffffffff161415151561185d57600080fd5b600360008373ffffffffffffffffffffffffffffffffffffffff1673ffffffffffffffffffffffffffffffffffffffff168152602001908152602001600020549050919050565b60006118af83611800565b821015156118bc57600080fd5b60106000848152602001908152602001600020828154811015156118dc57fe5b9060005260206000200154905092915050565b60006118fc8484846121ef565b90509392505050565b6000600d8054905082101515611983576040517f08c379a00000000000000000000000000000000000000000000000000000000081526004018080602001828103825260128152602001807f4e6f6e2d6578697374656e7420696e646578000000000000000000000000000081525060200191505060405180910390fd5b600d8281548110151561199257fe5b90600052602060002001549050919050565b606060068054600181600116156101000203166002900480601f016020809104026020016040519081016040528092919081815260200182805460018160011615610100020316600290048015611a3c5780601f10611a1157610100808354040283529160200191611a3c565b820191906000526020600020905b815481529060010190602001808311611a1f57829003601f168201915b5050505050905090565b6000611a548585858561227b565b9050949350505050565b3373ffffffffffffffffffffffffffffffffffffffff168273ffffffffffffffffffffffffffffffffffffffff1614151515611a9957600080fd5b80600460003373ffffffffffffffffffffffffffffffffffffffff1673ffffffffffffffffffffffffffffffffffffffff16815260200190815260200160002060008473ffffffffffffffffffffffffffffffffffffffff1673ffffffffffffffffffffffffffffffffffffffff16815260200190815260200160002060006101000a81548160ff0219169083151502179055508173ffffffffffffffffffffffffffffffffffffffff163373ffffffffffffffffffffffffffffffffffffffff167f17307eab39ab6107e8899845ad3d59bd9653f200f220920489ca2b5937696c3183604051808215151515815260200191505060405180910390a35050565b6000600d80549050905090565b611bb284848461124b565b611bbe84848484612362565b1515611bc957600080fd5b50505050565b6060611bda82611472565b1515611be557600080fd5b600b60008381526020019081526020016000208054600181600116156101000203166002900480601f016020809104026020016040519081016040528092919081815260200182805460018160011615610100020316600290048015611c8c5780601f10611c6157610100808354040283529160200191611c8c565b820191906000526020600020905b815481529060010190602001808311611c6f57829003601f168201915b50505050509050919050565b6000611ca382612584565b9050919050565b6000600460008473ffffffffffffffffffffffffffffffffffffffff1673ffffffffffffffffffffffffffffffffffffffff16815260200190815260200160002060008373ffffffffffffffffffffffffffffffffffffffff1673ffffffffffffffffffffffffffffffffffffffff16815260200190815260200160002060009054906101000a900460ff16905092915050565b60001515611d4b57600080fd5b5050565b600080611d5b83611782565b90508073ffffffffffffffffffffffffffffffffffffffff168473ffffffffffffffffffffffffffffffffffffffff161480611dca57508373ffffffffffffffffffffffffffffffffffffffff16611db28461103f565b73ffffffffffffffffffffffffffffffffffffffff16145b80611ddb5750611dda8185611caa565b5b91505092915050565b8173ffffffffffffffffffffffffffffffffffffffff16611e0482611782565b73ffffffffffffffffffffffffffffffffffffffff16141515611e2657600080fd5b600073ffffffffffffffffffffffffffffffffffffffff166002600083815260200190815260200160002060009054906101000a900473ffffffffffffffffffffffffffffffffffffffff1673ffffffffffffffffffffffffffffffffffffffff16141515611ee35760006002600083815260200190815260200160002060006101000a81548173ffffffffffffffffffffffffffffffffffffffff021916908373ffffffffffffffffffffffffffffffffffffffff1602179055505b5050565b6000806000611ef685856125f2565b60086000858152602001908152602001600020549250611f626001600760008873ffffffffffffffffffffffffffffffffffffffff1673ffffffffffffffffffffffffffffffffffffffff1681526020019081526020016000208054905061272190919063ffffffff16565b9150600760008673ffffffffffffffffffffffffffffffffffffffff1673ffffffffffffffffffffffffffffffffffffffff16815260200190815260200160002082815481101515611fb057fe5b9060005260206000200154905080600760008773ffffffffffffffffffffffffffffffffffffffff1673ffffffffffffffffffffffffffffffffffffffff1681526020019081526020016000208481548110151561200a57fe5b9060005260206000200181905550600760008673ffffffffffffffffffffffffffffffffffffffff1673ffffffffffffffffffffffffffffffffffffffff16815260200190815260200160002080548091906001900361206a919061320e565b50600060086000868152602001908152602001600020819055508260086000838152602001908152602001600020819055505050505050565b60006120af838361273a565b600760008473ffffffffffffffffffffffffffffffffffffffff1673ffffffffffffffffffffffffffffffffffffffff168152602001908152602001600020805490509050600760008473ffffffffffffffffffffffffffffffffffffffff1673ffffffffffffffffffffffffffffffffffffffff168152602001908152602001600020829080600181540180825580915050906001820390600052602060002001600090919290919091505550806008600084815260200190815260200160002081905550505050565b600080612185612894565b90506121913382612198565b8091505090565b6121a282826128aa565b600980549050600a60008381526020019081526020016000208190555060098190806001815401808255809150509060018203906000526020600020016000909192909190915055505050565b6000806121fb85611472565b151561220657600080fd5b3373ffffffffffffffffffffffffffffffffffffffff1661222686611782565b73ffffffffffffffffffffffffffffffffffffffff1614151561224857600080fd5b61225183612950565b61225961299b565b905061226585826129b1565b61227181868587612a0b565b9150509392505050565b60008061228785611472565b151561229257600080fd5b3373ffffffffffffffffffffffffffffffffffffffff166122b286611782565b73ffffffffffffffffffffffffffffffffffffffff161415156122d457600080fd5b6122dd866115a7565b50505090503373ffffffffffffffffffffffffffffffffffffffff1661230282611782565b73ffffffffffffffffffffffffffffffffffffffff1614151561232457600080fd5b61232d83612950565b848114151561234b576123408187612c71565b61234a85876129b1565b5b61235786868587612d44565b915050949350505050565b6000806123848573ffffffffffffffffffffffffffffffffffffffff16612f45565b1515612393576001915061257b565b8473ffffffffffffffffffffffffffffffffffffffff1663150b7a02338887876040518563ffffffff167c0100000000000000000000000000000000000000000000000000000000028152600401808573ffffffffffffffffffffffffffffffffffffffff1673ffffffffffffffffffffffffffffffffffffffff1681526020018473ffffffffffffffffffffffffffffffffffffffff1673ffffffffffffffffffffffffffffffffffffffff16815260200183815260200180602001828103825283818151815260200191508051906020019080838360005b8381101561248857808201518184015260208101905061246d565b50505050905090810190601f1680156124b55780820380516001836020036101000a031916815260200191505b5095505050505050602060405180830381600087803b1580156124d757600080fd5b505af11580156124eb573d6000803e3d6000fd5b505050506040513d602081101561250157600080fd5b8101908080519060200190929190505050905063150b7a027c0100000000000000000000000000000000000000000000000000000000027bffffffffffffffffffffffffffffffffffffffffffffffffffffffff1916817bffffffffffffffffffffffffffffffffffffffffffffffffffffffff19161491505b50949350505050565b600080612590836115a7565b50505090503373ffffffffffffffffffffffffffffffffffffffff166125b582611782565b73ffffffffffffffffffffffffffffffffffffffff161415156125d757600080fd5b6125e18184612c71565b6125ea83612f58565b915050919050565b8173ffffffffffffffffffffffffffffffffffffffff1661261282611782565b73ffffffffffffffffffffffffffffffffffffffff1614151561263457600080fd5b6126876001600360008573ffffffffffffffffffffffffffffffffffffffff1673ffffffffffffffffffffffffffffffffffffffff1681526020019081526020016000205461272190919063ffffffff16565b600360008473ffffffffffffffffffffffffffffffffffffffff1673ffffffffffffffffffffffffffffffffffffffff1681526020019081526020016000208190555060006001600083815260200190815260200160002060006101000a81548173ffffffffffffffffffffffffffffffffffffffff021916908373ffffffffffffffffffffffffffffffffffffffff1602179055505050565b600082821115151561272f57fe5b818303905092915050565b600073ffffffffffffffffffffffffffffffffffffffff166001600083815260200190815260200160002060009054906101000a900473ffffffffffffffffffffffffffffffffffffffff1673ffffffffffffffffffffffffffffffffffffffff161415156127a857600080fd5b816001600083815260200190815260200160002060006101000a81548173ffffffffffffffffffffffffffffffffffffffff021916908373ffffffffffffffffffffffffffffffffffffffff16021790555061284d6001600360008573ffffffffffffffffffffffffffffffffffffffff1673ffffffffffffffffffffffffffffffffffffffff168152602001908152602001600020546131f290919063ffffffff16565b600360008473ffffffffffffffffffffffffffffffffffffffff1673ffffffffffffffffffffffffffffffffffffffff168152602001908152602001600020819055505050565b6000600f60008154600101919050819055905090565b600073ffffffffffffffffffffffffffffffffffffffff168273ffffffffffffffffffffffffffffffffffffffff16141515156128e657600080fd5b6128f082826120a3565b808273ffffffffffffffffffffffffffffffffffffffff16600073ffffffffffffffffffffffffffffffffffffffff167fddf252ad1be2c89b69c2b068fc378daa952ba7f163c4a11628f55a4df523b3ef60405160405180910390a45050565b60008090505b81518110156129975761297f828281518110151561297057fe5b906020019060200201516113ee565b151561298a57600080fd5b8080600101915050612956565b5050565b6000600e60008154600101919050819055905090565b60016010600084815260200190815260200160002082908060018154018082558091505090600182039060005260206000200160009091929091909150550360116000838152602001908152602001600020819055505050565b6000612a16856113ee565b151515612a8b576040517f08c379a00000000000000000000000000000000000000000000000000000000081526004018080602001828103825260128152602001807f4b657920616c726561647920657869737473000000000000000000000000000081525060200191505060405180910390fd5b83600c60008781526020019081526020016000206000018190555082600c60008781526020019081526020016000206002019080519060200190612ad092919061323a565b5081600c60008781526020019081526020016000206003019080519060200190612afb929190613287565b506001600d869080600181540180825580915050906001820390600052602060002001600090919290919091505503600c600087815260200190815260200160002060010181905550837f19d22bee5782f0874b6191c6f90bded29b1628be35dce6f7b153614d2af4789386600c6000898152602001908152602001600020600101548686604051808581526020018481526020018060200180602001838103835285818151815260200191508051906020019060200280838360005b83811015612bd3578082015181840152602081019050612bb8565b50505050905001838103825284818151815260200191508051906020019080838360005b83811015612c12578082015181840152602081019050612bf7565b50505050905090810190601f168015612c3f5780820380516001836020036101000a031916815260200191505b50965050505050505060405180910390a2600c6000868152602001908152602001600020600101549050949350505050565b60008060116000848152602001908152602001600020549150601060008581526020019081526020016000206001601060008781526020019081526020016000208054905003815481101515612cc357fe5b90600052602060002001549050806010600086815260200190815260200160002083815481101515612cf157fe5b906000526020600020018190555081601160008381526020019081526020016000208190555060106000858152602001908152602001600020805480919060019003612d3d919061320e565b5050505050565b6000612d4f856113ee565b1515612dc3576040517f08c379a00000000000000000000000000000000000000000000000000000000081526004018080602001828103825260108152602001807f4e6f6e2d6578697374656e74206b65790000000000000000000000000000000081525060200191505060405180910390fd5b83600c60008781526020019081526020016000206000018190555082600c60008781526020019081526020016000206002019080519060200190612e0892919061323a565b5081600c60008781526020019081526020016000206003019080519060200190612e33929190613287565b5083857fab0254d684b4d3209da56743fdf6410fa89c36a133efb05f6a509cf78b9b8e25600c6000898152602001908152602001600020600101548686604051808481526020018060200180602001838103835285818151815260200191508051906020019060200280838360005b83811015612ebd578082015181840152602081019050612ea2565b50505050905001838103825284818151815260200191508051906020019080838360005b83811015612efc578082015181840152602081019050612ee1565b50505050905090810190601f168015612f295780820380516001836020036101000a031916815260200191505b509550505050505060405180910390a360019050949350505050565b600080823b905060008111915050919050565b6000806000612f66846113ee565b1515612fda576040517f08c379a00000000000000000000000000000000000000000000000000000000081526004018080602001828103825260108152602001807f4e6f6e2d6578697374656e74206b65790000000000000000000000000000000081525060200191505060405180910390fd5b600c6000858152602001908152602001600020600101549150600d6001600d805490500381548110151561300a57fe5b9060005260206000200154905080600d8381548110151561302757fe5b906000526020600020018190555081600c600083815260200190815260200160002060010181905550600d805480919060019003613065919061320e565b50837fe7e87ecee6790f02e298c5c71c0b9c8ba50a01f5cc25d62b93f77eb4e48aed9e836040518082815260200191505060405180910390a2600c600082815260200190815260200160002060000154817fab0254d684b4d3209da56743fdf6410fa89c36a133efb05f6a509cf78b9b8e2584600c6000868152602001908152602001600020600201600c6000878152602001908152602001600020600301604051808481526020018060200180602001838103835285818154815260200191508054801561315357602002820191906000526020600020905b81548152602001906001019080831161313f575b50508381038252848181546001816001161561010002031660029004815260200191508054600181600116156101000203166002900480156131d65780601f106131ab576101008083540402835291602001916131d6565b820191906000526020600020905b8154815290600101906020018083116131b957829003601f168201915b50509550505050505060405180910390a3600192505050919050565b6000818301905082811015151561320557fe5b80905092915050565b815481835581811115613235578183600052602060002091820191016132349190613307565b5b505050565b828054828255906000526020600020908101928215613276579160200282015b8281111561327557825182559160200191906001019061325a565b5b5090506132839190613307565b5090565b828054600181600116156101000203166002900490600052602060002090601f016020900481019282601f106132c857805160ff19168380011785556132f6565b828001600101855582156132f6579182015b828111156132f55782518255916020019190600101906132da565b5b5090506133039190613307565b5090565b61332991905b8082111561332557600081600090555060010161330d565b5090565b905600a165627a7a72305820aaa581e234cbb047953a9e2efc835762769c23b2736881cb85d87c253adfe2cb0029",
  "source": "pragma solidity ^0.4.24;\nimport \"../GenericProvenance.sol\";\nimport \"../Provenance.sol\";\n\ncontract ProvenanceDAppChain is Provenance, GenericProvenance(\"ProvenanceToken\", \"PROV\") {\n    // DAppChain Gateway address\n    address public gateway;\n\n    constructor(address _gateway) public {\n        gateway = _gateway;\n    }\n\n    // Used by the DAppChain Gateway to mint tokens that have been deposited to the Mainnet Gateway\n    function mintToGateway(uint256 _uid) public {\n        require(msg.sender == gateway);\n        _mint(gateway, _uid);\n    }\n\n    function depositToGateway(address _gateway, uint _tokenId) public {\n        require(false);\n        // function not allowed on DAppChain contract\n    }\n\n    function createProvenance(uint _tokenId, string _context, uint[] _inputProvenanceIds) public returns (uint index) {\n        return _createProvenance(_tokenId, _context, _inputProvenanceIds);\n    }\n\n    function updateProvenance(uint _provId, uint _tokenId, string _context, uint[] _inputProvenanceIds) public returns (bool success) {\n        return _updateProvenance(_provId, _tokenId, _context, _inputProvenanceIds);\n    }\n\n    function deleteProvenance(uint _provId) public returns (bool success) {\n        return _deleteProvenance(_provId);\n    }\n\n    function requestToken() public returns (uint tokenId) {\n        // function not allowed on DAppChain contract\n        require(false);\n        return _requestToken();\n    }\n\n    function onERC721Received(\n        address _operator,\n        address _from,\n        uint256 _tokenId,\n        bytes _data\n    ) public returns(bytes4) {\n        return ERC721_RECEIVED;\n    }\n\n}\n",
  "sourcePath": "/Users/martensigwart/Development/IntelliJ/workspace-uni/iotprovenance/contracts/dappchain/ProvenanceDAppChain.sol",
  "compiler": {
    "name": "solc",
    "version": "0.4.24+commit.e67f0147.Emscripten.clang"
  },
  "schemaVersion": "2.0.1",
  "updatedAt": "2018-12-10T14:15:37.621Z"
}