{
  "contractName": "ProvenanceMainnet",
  "abi": [
    {
      "constant": true,
      "inputs": [
        {
          "name": "_interfaceId",
          "type": "bytes4"
        }
      ],
      "name": "supportsInterface",
      "outputs": [
        {
          "name": "",
          "type": "bool"
        }
      ],
      "payable": false,
      "stateMutability": "view",
      "type": "function"
    },
    {
      "constant": true,
      "inputs": [],
      "name": "name",
      "outputs": [
        {
          "name": "",
          "type": "string"
        }
      ],
      "payable": false,
      "stateMutability": "view",
      "type": "function"
    },
    {
      "constant": true,
      "inputs": [
        {
          "name": "_tokenId",
          "type": "uint256"
        }
      ],
      "name": "getApproved",
      "outputs": [
        {
          "name": "",
          "type": "address"
        }
      ],
      "payable": false,
      "stateMutability": "view",
      "type": "function"
    },
    {
      "constant": false,
      "inputs": [
        {
          "name": "_to",
          "type": "address"
        },
        {
          "name": "_tokenId",
          "type": "uint256"
        }
      ],
      "name": "approve",
      "outputs": [],
      "payable": false,
      "stateMutability": "nonpayable",
      "type": "function"
    },
    {
      "constant": true,
      "inputs": [],
      "name": "totalSupply",
      "outputs": [
        {
          "name": "",
          "type": "uint256"
        }
      ],
      "payable": false,
      "stateMutability": "view",
      "type": "function"
    },
    {
      "constant": true,
      "inputs": [],
      "name": "InterfaceId_ERC165",
      "outputs": [
        {
          "name": "",
          "type": "bytes4"
        }
      ],
      "payable": false,
      "stateMutability": "view",
      "type": "function"
    },
    {
      "constant": false,
      "inputs": [
        {
          "name": "_from",
          "type": "address"
        },
        {
          "name": "_to",
          "type": "address"
        },
        {
          "name": "_tokenId",
          "type": "uint256"
        }
      ],
      "name": "transferFrom",
      "outputs": [],
      "payable": false,
      "stateMutability": "nonpayable",
      "type": "function"
    },
    {
      "constant": true,
      "inputs": [
        {
          "name": "_owner",
          "type": "address"
        },
        {
          "name": "_index",
          "type": "uint256"
        }
      ],
      "name": "tokenOfOwnerByIndex",
      "outputs": [
        {
          "name": "",
          "type": "uint256"
        }
      ],
      "payable": false,
      "stateMutability": "view",
      "type": "function"
    },
    {
      "constant": false,
      "inputs": [
        {
          "name": "_from",
          "type": "address"
        },
        {
          "name": "_to",
          "type": "address"
        },
        {
          "name": "_tokenId",
          "type": "uint256"
        }
      ],
      "name": "safeTransferFrom",
      "outputs": [],
      "payable": false,
      "stateMutability": "nonpayable",
      "type": "function"
    },
    {
      "constant": true,
      "inputs": [
        {
          "name": "_provId",
          "type": "uint256"
        }
      ],
      "name": "isProvenance",
      "outputs": [
        {
          "name": "isIndeed",
          "type": "bool"
        }
      ],
      "payable": false,
      "stateMutability": "view",
      "type": "function"
    },
    {
      "constant": true,
      "inputs": [
        {
          "name": "_tokenId",
          "type": "uint256"
        }
      ],
      "name": "exists",
      "outputs": [
        {
          "name": "",
          "type": "bool"
        }
      ],
      "payable": false,
      "stateMutability": "view",
      "type": "function"
    },
    {
      "constant": true,
      "inputs": [
        {
          "name": "_index",
          "type": "uint256"
        }
      ],
      "name": "tokenByIndex",
      "outputs": [
        {
          "name": "",
          "type": "uint256"
        }
      ],
      "payable": false,
      "stateMutability": "view",
      "type": "function"
    },
    {
      "constant": true,
      "inputs": [
        {
          "name": "_provId",
          "type": "uint256"
        }
      ],
      "name": "getProvenance",
      "outputs": [
        {
          "name": "tokenId",
          "type": "uint256"
        },
        {
          "name": "inputProvenanceIds",
          "type": "uint256[]"
        },
        {
          "name": "context",
          "type": "string"
        },
        {
          "name": "index",
          "type": "uint256"
        }
      ],
      "payable": false,
      "stateMutability": "view",
      "type": "function"
    },
    {
      "constant": true,
      "inputs": [
        {
          "name": "_tokenId",
          "type": "uint256"
        }
      ],
      "name": "ownerOf",
      "outputs": [
        {
          "name": "",
          "type": "address"
        }
      ],
      "payable": false,
      "stateMutability": "view",
      "type": "function"
    },
    {
      "constant": true,
      "inputs": [
        {
          "name": "_tokenId",
          "type": "uint256"
        }
      ],
      "name": "numberOfProvenanceRecordsFor",
      "outputs": [
        {
          "name": "",
          "type": "uint256"
        }
      ],
      "payable": false,
      "stateMutability": "view",
      "type": "function"
    },
    {
      "constant": true,
      "inputs": [
        {
          "name": "_owner",
          "type": "address"
        }
      ],
      "name": "balanceOf",
      "outputs": [
        {
          "name": "",
          "type": "uint256"
        }
      ],
      "payable": false,
      "stateMutability": "view",
      "type": "function"
    },
    {
      "constant": true,
      "inputs": [
        {
          "name": "_tokenId",
          "type": "uint256"
        },
        {
          "name": "_index",
          "type": "uint256"
        }
      ],
      "name": "provenanceOfTokenByIndex",
      "outputs": [
        {
          "name": "provId",
          "type": "uint256"
        }
      ],
      "payable": false,
      "stateMutability": "view",
      "type": "function"
    },
    {
      "constant": true,
      "inputs": [
        {
          "name": "_index",
          "type": "uint256"
        }
      ],
      "name": "getProvenanceIdAtIndex",
      "outputs": [
        {
          "name": "provId",
          "type": "uint256"
        }
      ],
      "payable": false,
      "stateMutability": "view",
      "type": "function"
    },
    {
      "constant": true,
      "inputs": [],
      "name": "symbol",
      "outputs": [
        {
          "name": "",
          "type": "string"
        }
      ],
      "payable": false,
      "stateMutability": "view",
      "type": "function"
    },
    {
      "constant": false,
      "inputs": [
        {
          "name": "_to",
          "type": "address"
        },
        {
          "name": "_approved",
          "type": "bool"
        }
      ],
      "name": "setApprovalForAll",
      "outputs": [],
      "payable": false,
      "stateMutability": "nonpayable",
      "type": "function"
    },
    {
      "constant": true,
      "inputs": [],
      "name": "getProvenanceCount",
      "outputs": [
        {
          "name": "count",
          "type": "uint256"
        }
      ],
      "payable": false,
      "stateMutability": "view",
      "type": "function"
    },
    {
      "constant": false,
      "inputs": [
        {
          "name": "_from",
          "type": "address"
        },
        {
          "name": "_to",
          "type": "address"
        },
        {
          "name": "_tokenId",
          "type": "uint256"
        },
        {
          "name": "_data",
          "type": "bytes"
        }
      ],
      "name": "safeTransferFrom",
      "outputs": [],
      "payable": false,
      "stateMutability": "nonpayable",
      "type": "function"
    },
    {
      "constant": true,
      "inputs": [
        {
          "name": "_tokenId",
          "type": "uint256"
        }
      ],
      "name": "tokenURI",
      "outputs": [
        {
          "name": "",
          "type": "string"
        }
      ],
      "payable": false,
      "stateMutability": "view",
      "type": "function"
    },
    {
      "constant": true,
      "inputs": [
        {
          "name": "_owner",
          "type": "address"
        },
        {
          "name": "_operator",
          "type": "address"
        }
      ],
      "name": "isApprovedForAll",
      "outputs": [
        {
          "name": "",
          "type": "bool"
        }
      ],
      "payable": false,
      "stateMutability": "view",
      "type": "function"
    },
    {
      "anonymous": false,
      "inputs": [
        {
          "indexed": true,
          "name": "_from",
          "type": "address"
        },
        {
          "indexed": true,
          "name": "_to",
          "type": "address"
        },
        {
          "indexed": true,
          "name": "_tokenId",
          "type": "uint256"
        }
      ],
      "name": "Transfer",
      "type": "event"
    },
    {
      "anonymous": false,
      "inputs": [
        {
          "indexed": true,
          "name": "_owner",
          "type": "address"
        },
        {
          "indexed": true,
          "name": "_approved",
          "type": "address"
        },
        {
          "indexed": true,
          "name": "_tokenId",
          "type": "uint256"
        }
      ],
      "name": "Approval",
      "type": "event"
    },
    {
      "anonymous": false,
      "inputs": [
        {
          "indexed": true,
          "name": "_owner",
          "type": "address"
        },
        {
          "indexed": true,
          "name": "_operator",
          "type": "address"
        },
        {
          "indexed": false,
          "name": "_approved",
          "type": "bool"
        }
      ],
      "name": "ApprovalForAll",
      "type": "event"
    },
    {
      "anonymous": false,
      "inputs": [
        {
          "indexed": false,
          "name": "provId",
          "type": "uint256"
        },
        {
          "indexed": false,
          "name": "index",
          "type": "uint256"
        },
        {
          "indexed": true,
          "name": "tokenId",
          "type": "uint256"
        },
        {
          "indexed": false,
          "name": "inputProvenanceIds",
          "type": "uint256[]"
        },
        {
          "indexed": false,
          "name": "context",
          "type": "string"
        }
      ],
      "name": "CreateProvenanceEvent",
      "type": "event"
    },
    {
      "anonymous": false,
      "inputs": [
        {
          "indexed": true,
          "name": "provId",
          "type": "uint256"
        },
        {
          "indexed": false,
          "name": "index",
          "type": "uint256"
        },
        {
          "indexed": true,
          "name": "tokenId",
          "type": "uint256"
        },
        {
          "indexed": false,
          "name": "inputProvenanceIds",
          "type": "uint256[]"
        },
        {
          "indexed": false,
          "name": "context",
          "type": "string"
        }
      ],
      "name": "UpdateProvenanceEvent",
      "type": "event"
    },
    {
      "anonymous": false,
      "inputs": [
        {
          "indexed": true,
          "name": "provId",
          "type": "uint256"
        },
        {
          "indexed": false,
          "name": "index",
          "type": "uint256"
        }
      ],
      "name": "DeleteProvenanceEvent",
      "type": "event"
    },
    {
      "constant": false,
      "inputs": [
        {
          "name": "_tokenId",
          "type": "uint256"
        },
        {
          "name": "_context",
          "type": "string"
        },
        {
          "name": "_inputProvenanceIds",
          "type": "uint256[]"
        }
      ],
      "name": "createProvenance",
      "outputs": [
        {
          "name": "index",
          "type": "uint256"
        }
      ],
      "payable": false,
      "stateMutability": "nonpayable",
      "type": "function"
    },
    {
      "constant": false,
      "inputs": [
        {
          "name": "_provId",
          "type": "uint256"
        },
        {
          "name": "_tokenId",
          "type": "uint256"
        },
        {
          "name": "_context",
          "type": "string"
        },
        {
          "name": "_inputProvenanceIds",
          "type": "uint256[]"
        }
      ],
      "name": "updateProvenance",
      "outputs": [
        {
          "name": "success",
          "type": "bool"
        }
      ],
      "payable": false,
      "stateMutability": "nonpayable",
      "type": "function"
    },
    {
      "constant": false,
      "inputs": [
        {
          "name": "_provId",
          "type": "uint256"
        }
      ],
      "name": "deleteProvenance",
      "outputs": [
        {
          "name": "success",
          "type": "bool"
        }
      ],
      "payable": false,
      "stateMutability": "nonpayable",
      "type": "function"
    },
    {
      "constant": false,
      "inputs": [],
      "name": "requestToken",
      "outputs": [
        {
          "name": "tokenId",
          "type": "uint256"
        }
      ],
      "payable": false,
      "stateMutability": "nonpayable",
      "type": "function"
    },
    {
      "constant": false,
      "inputs": [
        {
          "name": "_gateway",
          "type": "address"
        },
        {
          "name": "_tokenId",
          "type": "uint256"
        }
      ],
      "name": "depositToGateway",
      "outputs": [],
      "payable": false,
      "stateMutability": "nonpayable",
      "type": "function"
    },
    {
      "constant": false,
      "inputs": [
        {
          "name": "_uid",
          "type": "uint256"
        }
      ],
      "name": "mintToGateway",
      "outputs": [],
      "payable": false,
      "stateMutability": "nonpayable",
      "type": "function"
    },
    {
      "constant": false,
      "inputs": [
        {
          "name": "_operator",
          "type": "address"
        },
        {
          "name": "_from",
          "type": "address"
        },
        {
          "name": "_tokenId",
          "type": "uint256"
        },
        {
          "name": "_data",
          "type": "bytes"
        }
      ],
      "name": "onERC721Received",
      "outputs": [
        {
          "name": "",
          "type": "bytes4"
        }
      ],
      "payable": false,
      "stateMutability": "nonpayable",
      "type": "function"
    }
  ],
  "bytecode": "0x60806040526040805190810160405280600f81526020017f50726f76656e616e6365546f6b656e00000000000000000000000000000000008152506040805190810160405280600481526020017f50524f56000000000000000000000000000000000000000000000000000000008152508181620000af6301ffc9a77c010000000000000000000000000000000000000000000000000000000002620001df640100000000026401000000009004565b620000ec6380ac58cd7c010000000000000000000000000000000000000000000000000000000002620001df640100000000026401000000009004565b62000129634f558e797c010000000000000000000000000000000000000000000000000000000002620001df640100000000026401000000009004565b8160059080519060200190620001419291906200029d565b5080600690805190602001906200015a9291906200029d565b506200019863780e9d637c010000000000000000000000000000000000000000000000000000000002620001df640100000000026401000000009004565b620001d5635b5e139f7c010000000000000000000000000000000000000000000000000000000002620001df640100000000026401000000009004565b505050506200034c565b63ffffffff7c010000000000000000000000000000000000000000000000000000000002817bffffffffffffffffffffffffffffffffffffffffffffffffffffffff1916141515156200023157600080fd5b6001600080837bffffffffffffffffffffffffffffffffffffffffffffffffffffffff19167bffffffffffffffffffffffffffffffffffffffffffffffffffffffff1916815260200190815260200160002060006101000a81548160ff02191690831515021790555050565b828054600181600116156101000203166002900490600052602060002090601f016020900481019282601f10620002e057805160ff191683800117855562000311565b8280016001018555821562000311579182015b8281111562000310578251825591602001919060010190620002f3565b5b50905062000320919062000324565b5090565b6200034991905b80821115620003455760008160009055506001016200032b565b5090565b90565b613247806200035c6000396000f30060806040526004361061018b576000357c0100000000000000000000000000000000000000000000000000000000900463ffffffff16806301ffc9a71461019057806306fdde03146101f4578063081812fc14610284578063095ea7b3146102f1578063150b7a021461033e57806318160ddd1461044357806319fa8f501461046e57806323b872dd146104d75780632f745c591461054457806342842e0e146105a557806343cd6bf4146106125780634d7ec628146106575780634f558e79146106825780634f6ccce7146106c7578063544297f51461070857806360f1233d146107355780636352211e146108315780636a8ce0b01461089e57806370a08231146108df5780638eb4eece14610936578063955f9be21461098157806395cc396314610a4b57806395d89b4114610a8c5780639f2b755614610b1c578063a22cb46514610bf4578063a3ed8a2114610c43578063b88d4fde14610c6e578063c87b56dd14610d21578063cd8b437214610dc7578063e985e9c514610e0c578063eb6bf63314610e87575b600080fd5b34801561019c57600080fd5b506101da60048036038101908080357bffffffffffffffffffffffffffffffffffffffffffffffffffffffff19169060200190929190505050610ed4565b604051808215151515815260200191505060405180910390f35b34801561020057600080fd5b50610209610f3b565b6040518080602001828103825283818151815260200191508051906020019080838360005b8381101561024957808201518184015260208101905061022e565b50505050905090810190601f1680156102765780820380516001836020036101000a031916815260200191505b509250505060405180910390f35b34801561029057600080fd5b506102af60048036038101908080359060200190929190505050610fdd565b604051808273ffffffffffffffffffffffffffffffffffffffff1673ffffffffffffffffffffffffffffffffffffffff16815260200191505060405180910390f35b3480156102fd57600080fd5b5061033c600480360381019080803573ffffffffffffffffffffffffffffffffffffffff1690602001909291908035906020019092919050505061101a565b005b34801561034a57600080fd5b506103ef600480360381019080803573ffffffffffffffffffffffffffffffffffffffff169060200190929190803573ffffffffffffffffffffffffffffffffffffffff16906020019092919080359060200190929190803590602001908201803590602001908080601f016020809104026020016040519081016040528093929190818152602001838380828437820191505050505050919291929050505061115f565b60405180827bffffffffffffffffffffffffffffffffffffffffffffffffffffffff19167bffffffffffffffffffffffffffffffffffffffffffffffffffffffff1916815260200191505060405180910390f35b34801561044f57600080fd5b5061045861118f565b6040518082815260200191505060405180910390f35b34801561047a57600080fd5b5061048361119c565b60405180827bffffffffffffffffffffffffffffffffffffffffffffffffffffffff19167bffffffffffffffffffffffffffffffffffffffffffffffffffffffff1916815260200191505060405180910390f35b3480156104e357600080fd5b50610542600480360381019080803573ffffffffffffffffffffffffffffffffffffffff169060200190929190803573ffffffffffffffffffffffffffffffffffffffff169060200190929190803590602001909291905050506111c3565b005b34801561055057600080fd5b5061058f600480360381019080803573ffffffffffffffffffffffffffffffffffffffff169060200190929190803590602001909291905050506112ce565b6040518082815260200191505060405180910390f35b3480156105b157600080fd5b50610610600480360381019080803573ffffffffffffffffffffffffffffffffffffffff169060200190929190803573ffffffffffffffffffffffffffffffffffffffff16906020019092919080359060200190929190505050611345565b005b34801561061e57600080fd5b5061063d60048036038101908080359060200190929190505050611366565b604051808215151515815260200191505060405180910390f35b34801561066357600080fd5b5061066c6113cf565b6040518082815260200191505060405180910390f35b34801561068e57600080fd5b506106ad600480360381019080803590602001909291905050506113de565b604051808215151515815260200191505060405180910390f35b3480156106d357600080fd5b506106f260048036038101908080359060200190929190505050611450565b6040518082815260200191505060405180910390f35b34801561071457600080fd5b5061073360048036038101908080359060200190929190505050611488565b005b34801561074157600080fd5b5061076060048036038101908080359060200190929190505050611498565b604051808581526020018060200180602001848152602001838103835286818151815260200191508051906020019060200280838360005b838110156107b3578082015181840152602081019050610798565b50505050905001838103825285818151815260200191508051906020019080838360005b838110156107f25780820151818401526020810190506107d7565b50505050905090810190601f16801561081f5780820380516001836020036101000a031916815260200191505b50965050505050505060405180910390f35b34801561083d57600080fd5b5061085c60048036038101908080359060200190929190505050611673565b604051808273ffffffffffffffffffffffffffffffffffffffff1673ffffffffffffffffffffffffffffffffffffffff16815260200191505060405180910390f35b3480156108aa57600080fd5b506108c9600480360381019080803590602001909291905050506116f1565b6040518082815260200191505060405180910390f35b3480156108eb57600080fd5b50610920600480360381019080803573ffffffffffffffffffffffffffffffffffffffff169060200190929190505050611711565b6040518082815260200191505060405180910390f35b34801561094257600080fd5b5061096b6004803603810190808035906020019092919080359060200190929190505050611795565b6040518082815260200191505060405180910390f35b34801561098d57600080fd5b50610a3560048036038101908080359060200190929190803590602001908201803590602001908080601f0160208091040260200160405190810160405280939291908181526020018383808284378201915050505050509192919290803590602001908201803590602001908080602002602001604051908101604052809392919081815260200183836020028082843782019150505050505091929192905050506117e0565b6040518082815260200191505060405180910390f35b348015610a5757600080fd5b50610a76600480360381019080803590602001909291905050506117f6565b6040518082815260200191505060405180910390f35b348015610a9857600080fd5b50610aa1611895565b6040518080602001828103825283818151815260200191508051906020019080838360005b83811015610ae1578082015181840152602081019050610ac6565b50505050905090810190601f168015610b0e5780820380516001836020036101000a031916815260200191505b509250505060405180910390f35b348015610b2857600080fd5b50610bda6004803603810190808035906020019092919080359060200190929190803590602001908201803590602001908080601f016020809104026020016040519081016040528093929190818152602001838380828437820191505050505050919291929080359060200190820180359060200190808060200260200160405190810160405280939291908181526020018383602002808284378201915050505050509192919290505050611937565b604051808215151515815260200191505060405180910390f35b348015610c0057600080fd5b50610c41600480360381019080803573ffffffffffffffffffffffffffffffffffffffff16906020019092919080351515906020019092919050505061194f565b005b348015610c4f57600080fd5b50610c58611a8b565b6040518082815260200191505060405180910390f35b348015610c7a57600080fd5b50610d1f600480360381019080803573ffffffffffffffffffffffffffffffffffffffff169060200190929190803573ffffffffffffffffffffffffffffffffffffffff16906020019092919080359060200190929190803590602001908201803590602001908080601f0160208091040260200160405190810160405280939291908181526020018383808284378201915050505050509192919290505050611a98565b005b348015610d2d57600080fd5b50610d4c60048036038101908080359060200190929190505050611ac0565b6040518080602001828103825283818151815260200191508051906020019080838360005b83811015610d8c578082015181840152602081019050610d71565b50505050905090810190601f168015610db95780820380516001836020036101000a031916815260200191505b509250505060405180910390f35b348015610dd357600080fd5b50610df260048036038101908080359060200190929190505050611b89565b604051808215151515815260200191505060405180910390f35b348015610e1857600080fd5b50610e6d600480360381019080803573ffffffffffffffffffffffffffffffffffffffff169060200190929190803573ffffffffffffffffffffffffffffffffffffffff169060200190929190505050611b9b565b604051808215151515815260200191505060405180910390f35b348015610e9357600080fd5b50610ed2600480360381019080803573ffffffffffffffffffffffffffffffffffffffff16906020019092919080359060200190929190505050611c2f565b005b6000806000837bffffffffffffffffffffffffffffffffffffffffffffffffffffffff19167bffffffffffffffffffffffffffffffffffffffffffffffffffffffff1916815260200190815260200160002060009054906101000a900460ff169050919050565b606060058054600181600116156101000203166002900480601f016020809104026020016040519081016040528092919081815260200182805460018160011615610100020316600290048015610fd35780601f10610fa857610100808354040283529160200191610fd3565b820191906000526020600020905b815481529060010190602001808311610fb657829003601f168201915b5050505050905090565b60006002600083815260200190815260200160002060009054906101000a900473ffffffffffffffffffffffffffffffffffffffff169050919050565b600061102582611673565b90508073ffffffffffffffffffffffffffffffffffffffff168373ffffffffffffffffffffffffffffffffffffffff161415151561106257600080fd5b8073ffffffffffffffffffffffffffffffffffffffff163373ffffffffffffffffffffffffffffffffffffffff1614806110a257506110a18133611b9b565b5b15156110ad57600080fd5b826002600084815260200190815260200160002060006101000a81548173ffffffffffffffffffffffffffffffffffffffff021916908373ffffffffffffffffffffffffffffffffffffffff160217905550818373ffffffffffffffffffffffffffffffffffffffff168273ffffffffffffffffffffffffffffffffffffffff167f8c5be1e5ebec7d5bd14f71427d1e84f3dd0314c0f7b2291e5b200ac8c7c3b92560405160405180910390a4505050565b600063150b7a027c0100000000000000000000000000000000000000000000000000000000029050949350505050565b6000600980549050905090565b6301ffc9a77c01000000000000000000000000000000000000000000000000000000000281565b6111cd3382611c3e565b15156111d857600080fd5b600073ffffffffffffffffffffffffffffffffffffffff168373ffffffffffffffffffffffffffffffffffffffff161415151561121457600080fd5b600073ffffffffffffffffffffffffffffffffffffffff168273ffffffffffffffffffffffffffffffffffffffff161415151561125057600080fd5b61125a8382611cd3565b6112648382611dd6565b61126e8282611f92565b808273ffffffffffffffffffffffffffffffffffffffff168473ffffffffffffffffffffffffffffffffffffffff167fddf252ad1be2c89b69c2b068fc378daa952ba7f163c4a11628f55a4df523b3ef60405160405180910390a4505050565b60006112d983611711565b821015156112e657600080fd5b600760008473ffffffffffffffffffffffffffffffffffffffff1673ffffffffffffffffffffffffffffffffffffffff1681526020019081526020016000208281548110151561133257fe5b9060005260206000200154905092915050565b6113618383836020604051908101604052806000815250611a98565b505050565b6000600d80549050600c60008481526020019081526020016000206001015410151561139557600090506113ca565b81600d600c6000858152602001908152602001600020600101548154811015156113bb57fe5b90600052602060002001541490505b919050565b60006113d9612069565b905090565b6000806001600084815260200190815260200160002060009054906101000a900473ffffffffffffffffffffffffffffffffffffffff169050600073ffffffffffffffffffffffffffffffffffffffff168173ffffffffffffffffffffffffffffffffffffffff161415915050919050565b600061145a61118f565b8210151561146757600080fd5b60098281548110151561147657fe5b90600052602060002001549050919050565b6000151561149557600080fd5b50565b600060608060006114a885611366565b151561151c576040517f08c379a00000000000000000000000000000000000000000000000000000000081526004018080602001828103825260108152602001807f4e6f6e2d6578697374656e74206b65790000000000000000000000000000000081525060200191505060405180910390fd5b600c600086815260200190815260200160002060000154600c6000878152602001908152602001600020600201600c6000888152602001908152602001600020600301600c600089815260200190815260200160002060010154828054806020026020016040519081016040528092919081815260200182805480156115c157602002820191906000526020600020905b8154815260200190600101908083116115ad575b50505050509250818054600181600116156101000203166002900480601f01602080910402602001604051908101604052809291908181526020018280546001816001161561010002031660029004801561165d5780601f106116325761010080835404028352916020019161165d565b820191906000526020600020905b81548152906001019060200180831161164057829003601f168201915b5050505050915093509350935093509193509193565b6000806001600084815260200190815260200160002060009054906101000a900473ffffffffffffffffffffffffffffffffffffffff169050600073ffffffffffffffffffffffffffffffffffffffff168173ffffffffffffffffffffffffffffffffffffffff16141515156116e857600080fd5b80915050919050565b600060106000838152602001908152602001600020805490509050919050565b60008073ffffffffffffffffffffffffffffffffffffffff168273ffffffffffffffffffffffffffffffffffffffff161415151561174e57600080fd5b600360008373ffffffffffffffffffffffffffffffffffffffff1673ffffffffffffffffffffffffffffffffffffffff168152602001908152602001600020549050919050565b60006117a0836116f1565b821015156117ad57600080fd5b60106000848152602001908152602001600020828154811015156117cd57fe5b9060005260206000200154905092915050565b60006117ed848484612087565b90509392505050565b6000600d8054905082101515611874576040517f08c379a00000000000000000000000000000000000000000000000000000000081526004018080602001828103825260128152602001807f4e6f6e2d6578697374656e7420696e646578000000000000000000000000000081525060200191505060405180910390fd5b600d8281548110151561188357fe5b90600052602060002001549050919050565b606060068054600181600116156101000203166002900480601f01602080910402602001604051908101604052809291908181526020018280546001816001161561010002031660029004801561192d5780601f106119025761010080835404028352916020019161192d565b820191906000526020600020905b81548152906001019060200180831161191057829003601f168201915b5050505050905090565b600061194585858585612113565b9050949350505050565b3373ffffffffffffffffffffffffffffffffffffffff168273ffffffffffffffffffffffffffffffffffffffff161415151561198a57600080fd5b80600460003373ffffffffffffffffffffffffffffffffffffffff1673ffffffffffffffffffffffffffffffffffffffff16815260200190815260200160002060008473ffffffffffffffffffffffffffffffffffffffff1673ffffffffffffffffffffffffffffffffffffffff16815260200190815260200160002060006101000a81548160ff0219169083151502179055508173ffffffffffffffffffffffffffffffffffffffff163373ffffffffffffffffffffffffffffffffffffffff167f17307eab39ab6107e8899845ad3d59bd9653f200f220920489ca2b5937696c3183604051808215151515815260200191505060405180910390a35050565b6000600d80549050905090565b611aa38484846111c3565b611aaf848484846121fa565b1515611aba57600080fd5b50505050565b6060611acb826113de565b1515611ad657600080fd5b600b60008381526020019081526020016000208054600181600116156101000203166002900480601f016020809104026020016040519081016040528092919081815260200182805460018160011615610100020316600290048015611b7d5780601f10611b5257610100808354040283529160200191611b7d565b820191906000526020600020905b815481529060010190602001808311611b6057829003601f168201915b50505050509050919050565b6000611b948261241c565b9050919050565b6000600460008473ffffffffffffffffffffffffffffffffffffffff1673ffffffffffffffffffffffffffffffffffffffff16815260200190815260200160002060008373ffffffffffffffffffffffffffffffffffffffff1673ffffffffffffffffffffffffffffffffffffffff16815260200190815260200160002060009054906101000a900460ff16905092915050565b611c3a338383611345565b5050565b600080611c4a83611673565b90508073ffffffffffffffffffffffffffffffffffffffff168473ffffffffffffffffffffffffffffffffffffffff161480611cb957508373ffffffffffffffffffffffffffffffffffffffff16611ca184610fdd565b73ffffffffffffffffffffffffffffffffffffffff16145b80611cca5750611cc98185611b9b565b5b91505092915050565b8173ffffffffffffffffffffffffffffffffffffffff16611cf382611673565b73ffffffffffffffffffffffffffffffffffffffff16141515611d1557600080fd5b600073ffffffffffffffffffffffffffffffffffffffff166002600083815260200190815260200160002060009054906101000a900473ffffffffffffffffffffffffffffffffffffffff1673ffffffffffffffffffffffffffffffffffffffff16141515611dd25760006002600083815260200190815260200160002060006101000a81548173ffffffffffffffffffffffffffffffffffffffff021916908373ffffffffffffffffffffffffffffffffffffffff1602179055505b5050565b6000806000611de5858561248a565b60086000858152602001908152602001600020549250611e516001600760008873ffffffffffffffffffffffffffffffffffffffff1673ffffffffffffffffffffffffffffffffffffffff168152602001908152602001600020805490506125b990919063ffffffff16565b9150600760008673ffffffffffffffffffffffffffffffffffffffff1673ffffffffffffffffffffffffffffffffffffffff16815260200190815260200160002082815481101515611e9f57fe5b9060005260206000200154905080600760008773ffffffffffffffffffffffffffffffffffffffff1673ffffffffffffffffffffffffffffffffffffffff16815260200190815260200160002084815481101515611ef957fe5b9060005260206000200181905550600760008673ffffffffffffffffffffffffffffffffffffffff1673ffffffffffffffffffffffffffffffffffffffff168152602001908152602001600020805480919060019003611f5991906130fd565b50600060086000868152602001908152602001600020819055508260086000838152602001908152602001600020819055505050505050565b6000611f9e83836125d2565b600760008473ffffffffffffffffffffffffffffffffffffffff1673ffffffffffffffffffffffffffffffffffffffff168152602001908152602001600020805490509050600760008473ffffffffffffffffffffffffffffffffffffffff1673ffffffffffffffffffffffffffffffffffffffff168152602001908152602001600020829080600181540180825580915050906001820390600052602060002001600090919290919091505550806008600084815260200190815260200160002081905550505050565b60008061207461272c565b90506120803382612742565b8091505090565b600080612093856113de565b151561209e57600080fd5b3373ffffffffffffffffffffffffffffffffffffffff166120be86611673565b73ffffffffffffffffffffffffffffffffffffffff161415156120e057600080fd5b6120e983612799565b6120f16127e4565b90506120fd85826127fa565b61210981868587612854565b9150509392505050565b60008061211f856113de565b151561212a57600080fd5b3373ffffffffffffffffffffffffffffffffffffffff1661214a86611673565b73ffffffffffffffffffffffffffffffffffffffff1614151561216c57600080fd5b61217586611498565b50505090503373ffffffffffffffffffffffffffffffffffffffff1661219a82611673565b73ffffffffffffffffffffffffffffffffffffffff161415156121bc57600080fd5b6121c583612799565b84811415156121e3576121d88187612aba565b6121e285876127fa565b5b6121ef86868587612b8d565b915050949350505050565b60008061221c8573ffffffffffffffffffffffffffffffffffffffff16612d8e565b151561222b5760019150612413565b8473ffffffffffffffffffffffffffffffffffffffff1663150b7a02338887876040518563ffffffff167c0100000000000000000000000000000000000000000000000000000000028152600401808573ffffffffffffffffffffffffffffffffffffffff1673ffffffffffffffffffffffffffffffffffffffff1681526020018473ffffffffffffffffffffffffffffffffffffffff1673ffffffffffffffffffffffffffffffffffffffff16815260200183815260200180602001828103825283818151815260200191508051906020019080838360005b83811015612320578082015181840152602081019050612305565b50505050905090810190601f16801561234d5780820380516001836020036101000a031916815260200191505b5095505050505050602060405180830381600087803b15801561236f57600080fd5b505af1158015612383573d6000803e3d6000fd5b505050506040513d602081101561239957600080fd5b8101908080519060200190929190505050905063150b7a027c0100000000000000000000000000000000000000000000000000000000027bffffffffffffffffffffffffffffffffffffffffffffffffffffffff1916817bffffffffffffffffffffffffffffffffffffffffffffffffffffffff19161491505b50949350505050565b60008061242883611498565b50505090503373ffffffffffffffffffffffffffffffffffffffff1661244d82611673565b73ffffffffffffffffffffffffffffffffffffffff1614151561246f57600080fd5b6124798184612aba565b61248283612da1565b915050919050565b8173ffffffffffffffffffffffffffffffffffffffff166124aa82611673565b73ffffffffffffffffffffffffffffffffffffffff161415156124cc57600080fd5b61251f6001600360008573ffffffffffffffffffffffffffffffffffffffff1673ffffffffffffffffffffffffffffffffffffffff168152602001908152602001600020546125b990919063ffffffff16565b600360008473ffffffffffffffffffffffffffffffffffffffff1673ffffffffffffffffffffffffffffffffffffffff1681526020019081526020016000208190555060006001600083815260200190815260200160002060006101000a81548173ffffffffffffffffffffffffffffffffffffffff021916908373ffffffffffffffffffffffffffffffffffffffff1602179055505050565b60008282111515156125c757fe5b818303905092915050565b600073ffffffffffffffffffffffffffffffffffffffff166001600083815260200190815260200160002060009054906101000a900473ffffffffffffffffffffffffffffffffffffffff1673ffffffffffffffffffffffffffffffffffffffff1614151561264057600080fd5b816001600083815260200190815260200160002060006101000a81548173ffffffffffffffffffffffffffffffffffffffff021916908373ffffffffffffffffffffffffffffffffffffffff1602179055506126e56001600360008573ffffffffffffffffffffffffffffffffffffffff1673ffffffffffffffffffffffffffffffffffffffff1681526020019081526020016000205461303b90919063ffffffff16565b600360008473ffffffffffffffffffffffffffffffffffffffff1673ffffffffffffffffffffffffffffffffffffffff168152602001908152602001600020819055505050565b6000600f60008154600101919050819055905090565b61274c8282613057565b600980549050600a60008381526020019081526020016000208190555060098190806001815401808255809150509060018203906000526020600020016000909192909190915055505050565b60008090505b81518110156127e0576127c882828151811015156127b957fe5b90602001906020020151611366565b15156127d357600080fd5b808060010191505061279f565b5050565b6000600e60008154600101919050819055905090565b60016010600084815260200190815260200160002082908060018154018082558091505090600182039060005260206000200160009091929091909150550360116000838152602001908152602001600020819055505050565b600061285f85611366565b1515156128d4576040517f08c379a00000000000000000000000000000000000000000000000000000000081526004018080602001828103825260128152602001807f4b657920616c726561647920657869737473000000000000000000000000000081525060200191505060405180910390fd5b83600c60008781526020019081526020016000206000018190555082600c60008781526020019081526020016000206002019080519060200190612919929190613129565b5081600c60008781526020019081526020016000206003019080519060200190612944929190613176565b506001600d869080600181540180825580915050906001820390600052602060002001600090919290919091505503600c600087815260200190815260200160002060010181905550837f19d22bee5782f0874b6191c6f90bded29b1628be35dce6f7b153614d2af4789386600c6000898152602001908152602001600020600101548686604051808581526020018481526020018060200180602001838103835285818151815260200191508051906020019060200280838360005b83811015612a1c578082015181840152602081019050612a01565b50505050905001838103825284818151815260200191508051906020019080838360005b83811015612a5b578082015181840152602081019050612a40565b50505050905090810190601f168015612a885780820380516001836020036101000a031916815260200191505b50965050505050505060405180910390a2600c6000868152602001908152602001600020600101549050949350505050565b60008060116000848152602001908152602001600020549150601060008581526020019081526020016000206001601060008781526020019081526020016000208054905003815481101515612b0c57fe5b90600052602060002001549050806010600086815260200190815260200160002083815481101515612b3a57fe5b906000526020600020018190555081601160008381526020019081526020016000208190555060106000858152602001908152602001600020805480919060019003612b8691906130fd565b5050505050565b6000612b9885611366565b1515612c0c576040517f08c379a00000000000000000000000000000000000000000000000000000000081526004018080602001828103825260108152602001807f4e6f6e2d6578697374656e74206b65790000000000000000000000000000000081525060200191505060405180910390fd5b83600c60008781526020019081526020016000206000018190555082600c60008781526020019081526020016000206002019080519060200190612c51929190613129565b5081600c60008781526020019081526020016000206003019080519060200190612c7c929190613176565b5083857fab0254d684b4d3209da56743fdf6410fa89c36a133efb05f6a509cf78b9b8e25600c6000898152602001908152602001600020600101548686604051808481526020018060200180602001838103835285818151815260200191508051906020019060200280838360005b83811015612d06578082015181840152602081019050612ceb565b50505050905001838103825284818151815260200191508051906020019080838360005b83811015612d45578082015181840152602081019050612d2a565b50505050905090810190601f168015612d725780820380516001836020036101000a031916815260200191505b509550505050505060405180910390a360019050949350505050565b600080823b905060008111915050919050565b6000806000612daf84611366565b1515612e23576040517f08c379a00000000000000000000000000000000000000000000000000000000081526004018080602001828103825260108152602001807f4e6f6e2d6578697374656e74206b65790000000000000000000000000000000081525060200191505060405180910390fd5b600c6000858152602001908152602001600020600101549150600d6001600d8054905003815481101515612e5357fe5b9060005260206000200154905080600d83815481101515612e7057fe5b906000526020600020018190555081600c600083815260200190815260200160002060010181905550600d805480919060019003612eae91906130fd565b50837fe7e87ecee6790f02e298c5c71c0b9c8ba50a01f5cc25d62b93f77eb4e48aed9e836040518082815260200191505060405180910390a2600c600082815260200190815260200160002060000154817fab0254d684b4d3209da56743fdf6410fa89c36a133efb05f6a509cf78b9b8e2584600c6000868152602001908152602001600020600201600c60008781526020019081526020016000206003016040518084815260200180602001806020018381038352858181548152602001915080548015612f9c57602002820191906000526020600020905b815481526020019060010190808311612f88575b505083810382528481815460018160011615610100020316600290048152602001915080546001816001161561010002031660029004801561301f5780601f10612ff45761010080835404028352916020019161301f565b820191906000526020600020905b81548152906001019060200180831161300257829003601f168201915b50509550505050505060405180910390a3600192505050919050565b6000818301905082811015151561304e57fe5b80905092915050565b600073ffffffffffffffffffffffffffffffffffffffff168273ffffffffffffffffffffffffffffffffffffffff161415151561309357600080fd5b61309d8282611f92565b808273ffffffffffffffffffffffffffffffffffffffff16600073ffffffffffffffffffffffffffffffffffffffff167fddf252ad1be2c89b69c2b068fc378daa952ba7f163c4a11628f55a4df523b3ef60405160405180910390a45050565b8154818355818111156131245781836000526020600020918201910161312391906131f6565b5b505050565b828054828255906000526020600020908101928215613165579160200282015b82811115613164578251825591602001919060010190613149565b5b50905061317291906131f6565b5090565b828054600181600116156101000203166002900490600052602060002090601f016020900481019282601f106131b757805160ff19168380011785556131e5565b828001600101855582156131e5579182015b828111156131e45782518255916020019190600101906131c9565b5b5090506131f291906131f6565b5090565b61321891905b808211156132145760008160009055506001016131fc565b5090565b905600a165627a7a723058203759f2ffd14ea4ef9a74ee0d5dd13aa1dc27d57d322bf6811320282271655d490029",
  "source": "pragma solidity ^0.4.24;\nimport \"../GenericProvenance.sol\";\nimport \"../Provenance.sol\";\n\ncontract ProvenanceMainnet is Provenance, GenericProvenance(\"ProvenanceToken\", \"PROV\")  {\n\n    function createProvenance(uint _tokenId, string _context, uint[] _inputProvenanceIds) public returns (uint index) {\n        return _createProvenance(_tokenId, _context, _inputProvenanceIds);\n    }\n\n    function updateProvenance(uint _provId, uint _tokenId, string _context, uint[] _inputProvenanceIds) public returns (bool success) {\n        return _updateProvenance(_provId, _tokenId, _context, _inputProvenanceIds);\n    }\n\n    function deleteProvenance(uint _provId) public returns (bool success) {\n        return _deleteProvenance(_provId);\n    }\n\n    function requestToken() public returns (uint tokenId) {\n        return _requestToken();\n    }\n\n    function depositToGateway(address _gateway, uint _tokenId) public {\n        safeTransferFrom(msg.sender, _gateway, _tokenId);\n    }\n\n    function mintToGateway(uint256 _uid) public {\n        // function not allowed on Mainnet contract\n        require(false);\n    }\n\n    function onERC721Received(\n        address _operator,\n        address _from,\n        uint256 _tokenId,\n        bytes _data\n    ) public returns(bytes4) {\n        return ERC721_RECEIVED;\n    }\n\n}\n\n",
  "sourcePath": "/Users/martensigwart/Development/IntelliJ/workspace-uni/iotprovenance/contracts/mainnet/ProvenanceMainnet.sol",
  "compiler": {
    "name": "solc",
    "version": "0.4.24+commit.e67f0147.Emscripten.clang"
  },
  "schemaVersion": "2.0.1",
  "updatedAt": "2018-12-10T14:15:38.229Z"
}