{
  "contractName": "ValidatorManagerContract",
  "abi": [
    {
      "constant": true,
      "inputs": [],
      "name": "numValidators",
      "outputs": [
        {
          "name": "",
          "type": "uint256"
        }
      ],
      "payable": false,
      "stateMutability": "view",
      "type": "function"
    },
    {
      "constant": false,
      "inputs": [],
      "name": "renounceOwnership",
      "outputs": [],
      "payable": false,
      "stateMutability": "nonpayable",
      "type": "function"
    },
    {
      "constant": true,
      "inputs": [
        {
          "name": "",
          "type": "address"
        }
      ],
      "name": "nonces",
      "outputs": [
        {
          "name": "",
          "type": "uint256"
        }
      ],
      "payable": false,
      "stateMutability": "view",
      "type": "function"
    },
    {
      "constant": true,
      "inputs": [],
      "name": "owner",
      "outputs": [
        {
          "name": "",
          "type": "address"
        }
      ],
      "payable": false,
      "stateMutability": "view",
      "type": "function"
    },
    {
      "constant": true,
      "inputs": [],
      "name": "nonce",
      "outputs": [
        {
          "name": "",
          "type": "uint256"
        }
      ],
      "payable": false,
      "stateMutability": "view",
      "type": "function"
    },
    {
      "constant": true,
      "inputs": [
        {
          "name": "",
          "type": "address"
        }
      ],
      "name": "allowedTokens",
      "outputs": [
        {
          "name": "",
          "type": "bool"
        }
      ],
      "payable": false,
      "stateMutability": "view",
      "type": "function"
    },
    {
      "constant": false,
      "inputs": [
        {
          "name": "_newOwner",
          "type": "address"
        }
      ],
      "name": "transferOwnership",
      "outputs": [],
      "payable": false,
      "stateMutability": "nonpayable",
      "type": "function"
    },
    {
      "inputs": [
        {
          "name": "_validators",
          "type": "address[]"
        },
        {
          "name": "_threshold_num",
          "type": "uint8"
        },
        {
          "name": "_threshold_denom",
          "type": "uint8"
        }
      ],
      "payable": false,
      "stateMutability": "nonpayable",
      "type": "constructor"
    },
    {
      "anonymous": false,
      "inputs": [
        {
          "indexed": false,
          "name": "validator",
          "type": "address"
        }
      ],
      "name": "AddedValidator",
      "type": "event"
    },
    {
      "anonymous": false,
      "inputs": [
        {
          "indexed": false,
          "name": "validator",
          "type": "address"
        }
      ],
      "name": "RemovedValidator",
      "type": "event"
    },
    {
      "anonymous": false,
      "inputs": [
        {
          "indexed": true,
          "name": "previousOwner",
          "type": "address"
        }
      ],
      "name": "OwnershipRenounced",
      "type": "event"
    },
    {
      "anonymous": false,
      "inputs": [
        {
          "indexed": true,
          "name": "previousOwner",
          "type": "address"
        },
        {
          "indexed": true,
          "name": "newOwner",
          "type": "address"
        }
      ],
      "name": "OwnershipTransferred",
      "type": "event"
    },
    {
      "constant": true,
      "inputs": [
        {
          "name": "_address",
          "type": "address"
        }
      ],
      "name": "checkValidator",
      "outputs": [
        {
          "name": "",
          "type": "bool"
        }
      ],
      "payable": false,
      "stateMutability": "view",
      "type": "function"
    },
    {
      "constant": false,
      "inputs": [
        {
          "name": "validator",
          "type": "address"
        },
        {
          "name": "v",
          "type": "uint8[]"
        },
        {
          "name": "r",
          "type": "bytes32[]"
        },
        {
          "name": "s",
          "type": "bytes32[]"
        }
      ],
      "name": "addValidator",
      "outputs": [],
      "payable": false,
      "stateMutability": "nonpayable",
      "type": "function"
    },
    {
      "constant": false,
      "inputs": [
        {
          "name": "validator",
          "type": "address"
        },
        {
          "name": "v",
          "type": "uint8[]"
        },
        {
          "name": "r",
          "type": "bytes32[]"
        },
        {
          "name": "s",
          "type": "bytes32[]"
        }
      ],
      "name": "removeValidator",
      "outputs": [],
      "payable": false,
      "stateMutability": "nonpayable",
      "type": "function"
    },
    {
      "constant": false,
      "inputs": [
        {
          "name": "_token",
          "type": "address"
        }
      ],
      "name": "toggleToken",
      "outputs": [],
      "payable": false,
      "stateMutability": "nonpayable",
      "type": "function"
    }
  ],
  "bytecode": "0x608060405234801561001057600080fd5b50604051611531380380611531833981018060405281019080805182019291906020018051906020019092919080519060200190929190505050600080336000806101000a81548173ffffffffffffffffffffffffffffffffffffffff021916908373ffffffffffffffffffffffffffffffffffffffff160217905550845191506000821115156100a057600080fd5b83600460006101000a81548160ff021916908360ff16021790555082600460016101000a81548160ff021916908360ff160217905550600090505b8181101561022c57600073ffffffffffffffffffffffffffffffffffffffff16858281518110151561010957fe5b9060200190602002015173ffffffffffffffffffffffffffffffffffffffff161415151561013657600080fd5b600160036000878481518110151561014a57fe5b9060200190602002015173ffffffffffffffffffffffffffffffffffffffff1673ffffffffffffffffffffffffffffffffffffffff16815260200190815260200160002060006101000a81548160ff0219169083151502179055507f8e15bf46bd11add443414ada75aa9592a4af68f3f2ec02ae3d49572f9843c2a885828151811015156101d457fe5b90602001906020020151604051808273ffffffffffffffffffffffffffffffffffffffff1673ffffffffffffffffffffffffffffffffffffffff16815260200191505060405180910390a180806001019150506100db565b845160058190555050505050506112e9806102486000396000f3006080604052600436106100af576000357c0100000000000000000000000000000000000000000000000000000000900463ffffffff16806315c75f89146100b45780635d593f8d146100f7578063715018a614610122578063797327ae146101395780637ecebe00146101945780638da5cb5b146101eb57806390b616c814610242578063affed0e0146102cd578063c7e7f6f6146102f8578063e744092e14610383578063f2fde38b146103de575b600080fd5b3480156100c057600080fd5b506100f5600480360381019080803573ffffffffffffffffffffffffffffffffffffffff169060200190929190505050610421565b005b34801561010357600080fd5b5061010c6104dc565b6040518082815260200191505060405180910390f35b34801561012e57600080fd5b506101376104e2565b005b34801561014557600080fd5b5061017a600480360381019080803573ffffffffffffffffffffffffffffffffffffffff1690602001909291905050506105e4565b604051808215151515815260200191505060405180910390f35b3480156101a057600080fd5b506101d5600480360381019080803573ffffffffffffffffffffffffffffffffffffffff169060200190929190505050610699565b6040518082815260200191505060405180910390f35b3480156101f757600080fd5b506102006106b1565b604051808273ffffffffffffffffffffffffffffffffffffffff1673ffffffffffffffffffffffffffffffffffffffff16815260200191505060405180910390f35b34801561024e57600080fd5b506102cb600480360381019080803573ffffffffffffffffffffffffffffffffffffffff1690602001909291908035906020019082018035906020019190919293919293908035906020019082018035906020019190919293919293908035906020019082018035906020019190919293919293905050506106d6565b005b3480156102d957600080fd5b506102e2610a0d565b6040518082815260200191505060405180910390f35b34801561030457600080fd5b50610381600480360381019080803573ffffffffffffffffffffffffffffffffffffffff169060200190929190803590602001908201803590602001919091929391929390803590602001908201803590602001919091929391929390803590602001908201803590602001919091929391929390505050610a13565b005b34801561038f57600080fd5b506103c4600480360381019080803573ffffffffffffffffffffffffffffffffffffffff169060200190929190505050610d52565b604051808215151515815260200191505060405180910390f35b3480156103ea57600080fd5b5061041f600480360381019080803573ffffffffffffffffffffffffffffffffffffffff169060200190929190505050610d72565b005b61042a336105e4565b151561043557600080fd5b600160008273ffffffffffffffffffffffffffffffffffffffff1673ffffffffffffffffffffffffffffffffffffffff16815260200190815260200160002060009054906101000a900460ff1615600160008373ffffffffffffffffffffffffffffffffffffffff1673ffffffffffffffffffffffffffffffffffffffff16815260200190815260200160002060006101000a81548160ff02191690831515021790555050565b60055481565b6000809054906101000a900473ffffffffffffffffffffffffffffffffffffffff1673ffffffffffffffffffffffffffffffffffffffff163373ffffffffffffffffffffffffffffffffffffffff1614151561053d57600080fd5b6000809054906101000a900473ffffffffffffffffffffffffffffffffffffffff1673ffffffffffffffffffffffffffffffffffffffff167ff8df31144d9c2f0f6b59d69b8b98abd5459d07f2742c4df920b25aae33c6482060405160405180910390a260008060006101000a81548173ffffffffffffffffffffffffffffffffffffffff021916908373ffffffffffffffffffffffffffffffffffffffff160217905550565b60008060009054906101000a900473ffffffffffffffffffffffffffffffffffffffff1673ffffffffffffffffffffffffffffffffffffffff168273ffffffffffffffffffffffffffffffffffffffff1614156106445760019050610694565b600360008373ffffffffffffffffffffffffffffffffffffffff1673ffffffffffffffffffffffffffffffffffffffff16815260200190815260200160002060009054906101000a900460ff1690505b919050565b60026020528060005260406000206000915090505481565b6000809054906101000a900473ffffffffffffffffffffffffffffffffffffffff1681565b6000600360008973ffffffffffffffffffffffffffffffffffffffff1673ffffffffffffffffffffffffffffffffffffffff16815260200190815260200160002060009054906101000a900460ff1615151561079a576040517f08c379a00000000000000000000000000000000000000000000000000000000081526004018080602001828103825260138152602001807f416c726561647920612076616c696461746f720000000000000000000000000081525060200191505060405180910390fd5b8760065460405160200180807f61646400000000000000000000000000000000000000000000000000000000008152506003018373ffffffffffffffffffffffffffffffffffffffff1673ffffffffffffffffffffffffffffffffffffffff166c01000000000000000000000000028152601401828152602001925050506040516020818303038152906040526040518082805190602001908083835b60208310151561085c5780518252602082019150602081019050602083039250610837565b6001836020036101000a0380198251168184511680821785525050505050509050019150506040518091039020905061092481888880806020026020016040519081016040528093929190818152602001838360200280828437820191505050505050878780806020026020016040519081016040528093929190818152602001838360200280828437820191505050505050868680806020026020016040519081016040528093929190818152602001838360200280828437820191505050505050610dd9565b6001600360008a73ffffffffffffffffffffffffffffffffffffffff1673ffffffffffffffffffffffffffffffffffffffff16815260200190815260200160002060006101000a81548160ff0219169083151502179055506005600081548092919060010191905055506006600081548092919060010191905055507f8e15bf46bd11add443414ada75aa9592a4af68f3f2ec02ae3d49572f9843c2a888604051808273ffffffffffffffffffffffffffffffffffffffff1673ffffffffffffffffffffffffffffffffffffffff16815260200191505060405180910390a15050505050505050565b60065481565b6000600360008973ffffffffffffffffffffffffffffffffffffffff1673ffffffffffffffffffffffffffffffffffffffff16815260200190815260200160002060009054906101000a900460ff161515610ad6576040517f08c379a000000000000000000000000000000000000000000000000000000000815260040180806020018281038252600f8152602001807f4e6f7420612076616c696461746f72000000000000000000000000000000000081525060200191505060405180910390fd5b6001600554111515610ae757600080fd5b8760065460405160200180807f72656d6f766500000000000000000000000000000000000000000000000000008152506006018373ffffffffffffffffffffffffffffffffffffffff1673ffffffffffffffffffffffffffffffffffffffff166c01000000000000000000000000028152601401828152602001925050506040516020818303038152906040526040518082805190602001908083835b602083101515610ba95780518252602082019150602081019050602083039250610b84565b6001836020036101000a03801982511681845116808217855250505050505090500191505060405180910390209050610c7181888880806020026020016040519081016040528093929190818152602001838360200280828437820191505050505050878780806020026020016040519081016040528093929190818152602001838360200280828437820191505050505050868680806020026020016040519081016040528093929190818152602001838360200280828437820191505050505050610dd9565b600360008973ffffffffffffffffffffffffffffffffffffffff1673ffffffffffffffffffffffffffffffffffffffff16815260200190815260200160002060006101000a81549060ff0219169055600560008154809291906001900391905055506006600081548092919060010191905055507fb625c55cf7e37b54fcd18bc4edafdf3f4f9acd59a5ec824c77c795dcb2d6507088604051808273ffffffffffffffffffffffffffffffffffffffff1673ffffffffffffffffffffffffffffffffffffffff16815260200191505060405180910390a15050505050505050565b60016020528060005260406000206000915054906101000a900460ff1681565b6000809054906101000a900473ffffffffffffffffffffffffffffffffffffffff1673ffffffffffffffffffffffffffffffffffffffff163373ffffffffffffffffffffffffffffffffffffffff16141515610dcd57600080fd5b610dd6816111c3565b50565b6000806000806000808851118015610df2575086518851145b8015610dff575085518751145b1515610e73576040517f08c379a000000000000000000000000000000000000000000000000000000000815260040180806020018281038252601a8152602001807f496e636f7272656374206e756d626572206f6620706172616d7300000000000081525060200191505060405180910390fd5b600460019054906101000a900460ff1660ff16600554600460009054906101000a900460ff1660ff1602811515610ea657fe5b04885110151515610f1f576040517f08c379a00000000000000000000000000000000000000000000000000000000081526004018080602001828103825260108152602001807f4e6f7420656e6f75676820766f7465730000000000000000000000000000000081525060200191505060405180910390fd5b8860405160200180807f19457468657265756d205369676e6564204d6573736167653a0a333200000000815250601c0182600019166000191681526020019150506040516020818303038152906040526040518082805190602001908083835b602083101515610fa45780518252602082019150602081019050602083039250610f7f565b6001836020036101000a038019825116818451168082178552505050505050905001915050604051809103902094508751935060009250600091505b838210156111b8576001858984815181101515610ff957fe5b90602001906020020151898581518110151561101157fe5b90602001906020020151898681518110151561102957fe5b90602001906020020151604051600081526020016040526040518085600019166000191681526020018460ff1660ff1681526020018360001916600019168152602001826000191660001916815260200194505050505060206040516020810390808403906000865af11580156110a4573d6000803e3d6000fd5b5050506020604051035190508273ffffffffffffffffffffffffffffffffffffffff168173ffffffffffffffffffffffffffffffffffffffff161180156111345750600360008273ffffffffffffffffffffffffffffffffffffffff1673ffffffffffffffffffffffffffffffffffffffff16815260200190815260200160002060009054906101000a900460ff165b15156111a8576040517f08c379a00000000000000000000000000000000000000000000000000000000081526004018080602001828103825260198152602001807f4e6f74207369676e656420627920612076616c696461746f720000000000000081525060200191505060405180910390fd5b8092508180600101925050610fe0565b505050505050505050565b600073ffffffffffffffffffffffffffffffffffffffff168173ffffffffffffffffffffffffffffffffffffffff16141515156111ff57600080fd5b8073ffffffffffffffffffffffffffffffffffffffff166000809054906101000a900473ffffffffffffffffffffffffffffffffffffffff1673ffffffffffffffffffffffffffffffffffffffff167f8be0079c531659141344cd1fd0a4f28419497f9722a3daafe3b4186f6b6457e060405160405180910390a3806000806101000a81548173ffffffffffffffffffffffffffffffffffffffff021916908373ffffffffffffffffffffffffffffffffffffffff160217905550505600a165627a7a723058201cb52dbaab89f31f676671202ed5ada8b130e93e9ee1611b1fea486257aa371f0029",
  "source": "pragma solidity ^0.4.24;\n\nimport \"openzeppelin-solidity/contracts/ownership/Ownable.sol\";\nimport \"./ECVerify.sol\";\n\n\ncontract ValidatorManagerContract is Ownable {\n  using ECVerify for bytes32;\n\n  mapping (address => bool) public allowedTokens;\n  mapping (address => uint256) public nonces;\n  mapping (address => bool) validators;\n\n  uint8 threshold_num;\n  uint8 threshold_denom;\n  uint256 public numValidators;\n  uint256 public nonce; // used for replay protection when adding/removing validators\n\n  event AddedValidator(address validator);\n  event RemovedValidator(address validator);\n\n  modifier onlyValidator() { require(checkValidator(msg.sender)); _; }\n\n  constructor (address[] _validators, uint8 _threshold_num, uint8 _threshold_denom) public {\n    uint256 length = _validators.length;\n    require(length > 0);\n\n    threshold_num = _threshold_num;\n    threshold_denom = _threshold_denom;\n    for (uint256 i = 0; i < length ; i++) {\n      require(_validators[i] != address(0));\n      validators[_validators[i]] = true;\n      emit AddedValidator(_validators[i]);\n    }\n    numValidators = _validators.length;\n  }\n\n  modifier isVerifiedByValidator(uint256 num, address contractAddress, bytes sig) {\n    // prevent replay attacks by adding the nonce in the sig\n    // if a validator signs an invalid nonce,\n    // it won't pass the signature verification\n    // since the nonce in the hash is stored in the contract\n    bytes32 hash = keccak256(abi.encodePacked(msg.sender, contractAddress, nonces[msg.sender], num));\n    address sender = hash.recover(sig);\n    require(validators[sender], \"Message not signed by a validator\");\n    _;\n    nonces[msg.sender]++; // increment nonce after execution\n  }\n\n  function checkValidator(address _address) public view returns (bool) {\n    // owner is a permanent validator\n    if (_address == owner) {\n      return true;\n    }\n    return validators[_address];\n  }\n\n  function addValidator(address validator, uint8[] v, bytes32[] r, bytes32[] s)\n    external\n  {\n    require(!validators[validator], \"Already a validator\");\n\n    // Check that we have enough signatures\n    bytes32 message = keccak256(abi.encodePacked(\"add\", validator, nonce));\n    checkThreshold(message, v, r, s);\n\n    // Add validator and increment nonce\n    validators[validator] = true;\n    numValidators++;\n    nonce++;\n    emit AddedValidator(validator);\n  }\n\n  function removeValidator(address validator, uint8[] v, bytes32[] r, bytes32[] s)\n    external\n  {\n    require(validators[validator], \"Not a validator\");\n    // The last validator may not remove himself\n    require(numValidators > 1);\n\n    // Check that we have enough signatures\n    bytes32 message = keccak256(abi.encodePacked(\"remove\", validator, nonce));\n    checkThreshold(message, v, r, s);\n\n    delete validators[validator];\n    numValidators--;\n    nonce++;\n    emit RemovedValidator(validator);\n  }\n\n  // Can't pass bytes[] to use the whole sig due to ABI enc\n  //, so we need to send v,r,s params\n  function checkThreshold(bytes32 message, uint8[] v, bytes32[] r, bytes32[] s) private view {\n    require(v.length > 0 && v.length == r.length && r.length == s.length,\n      \"Incorrect number of params\");\n    require(v.length >= (threshold_num * numValidators / threshold_denom ),\n      \"Not enough votes\");\n\n    bytes32 hash = keccak256(abi.encodePacked(\"\\x19Ethereum Signed Message:\\n32\", message));\n    uint256 sig_length = v.length;\n\n    // Check that all addresess were from validators\n    // Prevent duplicates by requiring that the sender sigs\n    // get submitted in increasing order\n    // influenced by\n    // https://github.com/christianlundkvist/simple-multisig\n    address lastAdd = address(0);\n    for (uint256 i = 0; i < sig_length; i++) {\n      address signer = ecrecover(hash, v[i], r[i], s[i]);\n      require(signer > lastAdd && validators[signer], \"Not signed by a validator\");\n      lastAdd = signer;\n    }\n  }\n\n  function toggleToken(address _token) public onlyValidator {\n    allowedTokens[_token] = !allowedTokens[_token];\n  }\n}\n",
  "sourcePath": "/Users/martensigwart/Development/IntelliJ/workspace-uni/iotprovenance/contracts/mainnet/ValidatorManagerContract.sol",
  "compiler": {
    "name": "solc",
    "version": "0.4.24+commit.e67f0147.Emscripten.clang"
  },
  "schemaVersion": "2.0.1",
  "updatedAt": "2018-11-20T14:30:23.437Z"
}